:100000000C94E3010C9439060C940C060C940B022E
:100010000C940B020C940B020C940B020C940B022C
:100020000C940B020C940B020C940B020C940B021C
:100030000C940B020C940B020C940B020C940B020C
:100040000C9466060C940B020C9462080C9427081E
:100050000C940B020C940B020C940B020C940B02EC
:100060000C940B020C940B020000000024002700EB
:100070002A0000000000250028002B0000000000DE
:1000800000000000000000000000002F000300003E
:1000900000000003143E14000000143E2A24000057
:1000A00000122A7F0A15050210282A1429160000BA
:1000B000281011290000000000000003120C0000AD
:1000C000000000212100000000000C120E150000AD
:1000D00000150E1F080800000008083E4000000040
:1000E00000000020080800000000080800000000D0
:1000F00000000020081020000001020421120C0062
:10010000000C1221220000000000203F29312200B3
:100110000022252929211200001225291214180075
:100120000000103F252517000019252525251E0054
:1001300000182525091121000001030525251A00B5
:10014000001A252529290600001E29290000000083
:1001500000000024400000000000002414080800F3
:100160000022221414141400001414141422220067
:10017000000808142901020000000609BA422418E8
:100180000000BEAA0B0C300000300C0B25253F00F0
:1001900000001A252121120C0000122121213F000C
:1001A00000001E2125253F000000212505053F00F8
:1001B000000001052921120C00001A2904043F0047
:1001C000003F0404212100000021213F21201000D4
:1001D00000001F210C083F000000211220203F00DA
:1001E0000020202004023F003F02040804023F00D8
:1001F000003F1008211E0000001E212105053F00C0
:1002000000000205211E0000005E21210D053F00B7
:100210000000221525120000001229290101010009
:100220000101013F20201F00001F2020201806018F
:100230000106182008103F003F1008040C1221008E
:100240000021120C040201000102043829312100AE
:1002500000212325213F00000000002104020100AD
:1002600000201008010200000000000220202000F1
:100270000020202001000000000000022A2A1000B7
:10028000003C1A2A24143F000018242424180000DB
:100290000000242424241800003F14242A2A1C00CF
:1002A000000C2A2A3E0800000000000AA4A418003E
:1002B00000007C88043F00000000380400000000BB
:1002C0000000003D848080000000007D103F0000A1
:1002D000000024283F0000000000002008043C002B
:1002E000003C0408083C0000003C040424241800DE
:1002F000001824242428FC00001824242424180096
:1003000000FC2824083C0000000804042A24000003
:100310000000122A3E04000000000424201C0000FB
:10032000003C102020100C00000C10201020300C7D
:100330000C3020101028240000242810508884003D
:10034000000C1020342400000000242C3F0C00007E
:1003500000002121000000000000007F212100009A
:1003600000000C3F08081000000810103F3F3F003D
:10037000003F3F3F000000000000000000000000C0
:1003800023002600290004040404040404040202D7
:100390000202020203030303030301020408102004
:1003A000408001020408102001020408102000000F
:1003B0000007000201000003040600000000000026
:1003C0000000050DFD0C11241FBECFEFD8E0DEBFED
:1003D000CDBF11E0A0E0B1E0E0E6F0E202C00590A0
:1003E0000D92A239B107D9F727E0A2E9B1E001C027
:1003F0001D92AC33B207E1F711E0C2EED1E004C0C8
:100400002197FE010E941D10C13ED107C9F70E942D
:100410009C080C944B0D0C94000081E080933506F1
:1004200008950895CF92DF92EF92FF920F931F935A
:10043000CF93DF936C01EB017B01E40EF51E00E02E
:1004400010E0CE15DF0561F06991D601ED91FC91C8
:100450000190F081E02DC6010995080F191FF1CF19
:10046000C801DF91CF911F910F91FF90EF90DF9026
:10047000CF9008958E3008F08E50877080648093FE
:100480007C0080917A00806480937A0080917A0069
:1004900086FDFCCF809178002091790090E0922B2E
:1004A0000895833081F028F4813099F08230A1F0F2
:1004B00008958630A9F08730B9F08430D1F4809166
:1004C00080008F7D03C0809180008F7780938000B3
:1004D000089584B58F7702C084B58F7D84BD08955B
:1004E0008091B0008F7703C08091B0008F7D8093A2
:1004F000B00008951F93CF93DF93282F30E0F901C8
:10050000E255FC4F8491F901E656FC4FD491F90174
:10051000EA57FC4FC491CC23C9F0162F81110E94D9
:100520005102EC2FF0E0EE0FFF1FEE58FF4FA591A8
:10053000B4918FB7F894111105C09C91ED2FE095FF
:10054000E92302C0EC91ED2BEC938FBFDF91CF91AB
:100550001F910895CF93DF9390E0FC01E656FC4F86
:100560002491FC01EA57FC4F8491882361F190E0CB
:10057000880F991FFC01E859FF4FC591D491FC01E8
:10058000EE58FF4FA591B491611109C09FB7F8943F
:100590008881209582238883EC912E230BC06230C2
:1005A00061F49FB7F8943881822F809583238883E4
:1005B000EC912E2B2C939FBF06C08FB7F894E88147
:1005C0002E2B28838FBFDF91CF9108951F93CF9358
:1005D000DF93182FEB0161E00E94AA02209711F42B
:1005E00060E004C0CF3FD10539F461E0812FDF9195
:1005F000CF911F910C947A02E12FF0E0E255FC4F6D
:10060000E491E330F9F048F4E130B9F0E230A1F5DB
:1006100084B5806284BDC8BD34C0E630E9F0E730FF
:1006200019F1E43049F58091800080628093800068
:10063000D0938B00C0938A0024C084B5806884BDA9
:10064000C7BD1FC080918000806880938000D093D8
:100650008900C093880015C08091B00080688093A5
:10066000B000C093B3000DC08091B0008062809351
:10067000B000C093B40005C0C038D1050CF0B5CFB0
:10068000AFCFDF91CF911F9108953FB7F89480913C
:10069000990190919A01A0919B01B0919C0126B57E
:1006A000A89B05C02F3F19F00196A11DB11D3FBFAA
:1006B000BA2FA92F982F8827820F911DA11DB11D38
:1006C000BC01CD0142E0660F771F881F991F4A9534
:1006D000D1F7089520E030E090E0AC01022E02C096
:1006E000559547950A94E2F740FF02C05B9A01C016
:1006F0005B985D9A5D982F5F3F4F2830310569F711
:1007000008952F923F924F925F926F927F928F92B5
:100710009F92AF92BF92CF92DF92EF92FF920F9390
:100720001F93CF93DF9300D01F92CDB7DEB781EB3D
:10073000682E81E0782E05EF15E097E3E92E96E02C
:10074000F92E1B821A8222E7C22ED12CAA24AA9447
:10075000B12C4AEE842E912C81E00A8001C0880FD2
:100760000A94EAF78983412C512C99819093930143
:1007700081E0042C01C0880F0A94EAF7809392016B
:100780001701240C351CF1018081882309F15C9844
:1007900080E00E946A0380E00E946A0380919201D7
:1007A0000E946A03F1018081B501681B71098AE02A
:1007B0000E94E602809193010E946A035C9AC40140
:1007C0000197F1F76FEF70E08AE00E94E60203C044
:1007D000C6010197F1F71801240C351CF101808145
:1007E000882309F15C9880E00E946A03809192015D
:1007F0000E946A03F1018081B501681B71098AE0DA
:100800000E94E60280E00E946A03809193010E94A8
:100810006A035C9AC4010197F1F76FEF70E08AE018
:100820000E94E60203C0C6010197F1F7F301E40D4F
:10083000F51D8081882301F15C988081B501681BDA
:1008400071098AE00E94E602809192010E946A0387
:1008500080E00E946A0380E00E946A038091930115
:100860000E946A035C9AC4010197F1F76FEF70E090
:100870008AE00E94E60203C0C6010197F1F7FFEF8C
:100880004F1A5F0A88E04816510409F06ECFEA81DA
:10089000FB813196FB83EA83F8E06F0E711C085FE1
:1008A0001F4F88E0E80EF11CEA81FB81389709F0C0
:1008B00053CF0F900F900F90DF91CF911F910F9119
:1008C000FF90EF90DF90CF90BF90AF909F908F9070
:1008D0007F906F905F904F903F902F9008952F9250
:1008E0003F924F925F926F927F928F929F92AF92C0
:1008F000BF92CF92DF92EF92FF920F931F93CF930D
:10090000DF9300D01F92CDB7DEB781EB682E81E078
:10091000782E05EF15E097E3E92E96E0F92E1B827D
:100920001A8222E7C22ED12CAA24AA94B12C4AEE14
:10093000842E912C809135068111B2C081E00A800D
:1009400001C0880F0A94EAF78983412C512C9981C0
:100950009093930181E0042C01C0880F0A94EAF778
:100960008093920180913506882391F0EA81FB8182
:100970003196FB83EA83F8E06F0E711C085F1F4F0E
:1009800088E0E80EF11CEA81FB81389799F688C06F
:100990001701240C351CF1018081882309F15C9832
:1009A00080E00E946A0380E00E946A0380919201C5
:1009B0000E946A03F1018081B501681B71098AE018
:1009C0000E94E602809193010E946A035C9AC4012E
:1009D0000197F1F76FEF70E08AE00E94E60203C032
:1009E000C6010197F1F71801240C351CF101808133
:1009F000882309F15C9880E00E946A03809192014B
:100A00000E946A03F1018081B501681B71098AE0C7
:100A10000E94E60280E00E946A03809193010E9496
:100A20006A035C9AC4010197F1F76FEF70E08AE006
:100A30000E94E60203C0C6010197F1F7F301E40D3D
:100A4000F51D8081882301F15C988081B501681BC8
:100A500071098AE00E94E602809192010E946A0375
:100A600080E00E946A0380E00E946A038091930103
:100A70000E946A035C9AC4010197F1F76FEF70E07E
:100A80008AE00E94E60203C0C6010197F1F7FFEF7A
:100A90004F1A5F0A88E04816510409F058CF66CF14
:100AA0000F900F900F90DF91CF911F910F91FF90BA
:100AB000EF90DF90CF90BF90AF909F908F907F90FE
:100AC0006F905F904F903F902F90089540E050E0DE
:100AD00020E030E0C901840F951FFC01E95CF94F6B
:100AE0001082FC01EB50FA4F1082FC01EF54FE4FD4
:100AF00010822F5F3F4F2830310561F7485F5F4F0D
:100B00004034510529F70C946F04FC0180819181D8
:100B10000C94E30DCF93DF93FC0124813581232BCB
:100B200071F0FB01DC01CD91DC9160817181CE011E
:100B30000E945E0F009719F08C1B9D0B02C08FEF77
:100B40009FEFDF91CF9108950F931F93CF93DF9382
:100B5000EC0188819981009729F02A813B81261731
:100B6000370788F48B016F5F7F4F0E947B0E0097E1
:100B700061F0998388831B830A832C813D81232B19
:100B800011F4FC01108281E001C080E0DF91CF917F
:100B90001F910F910895EF92FF920F931F93CF93A0
:100BA000DF93EC017B018A01BA010E94A405288130
:100BB000398181110DC02115310519F0C9010E943B
:100BC000E30D198218821D821C821B821A8206C0C4
:100BD0001D830C83B701C9010E94570FCE01DF911D
:100BE000CF911F910F91FF90EF900895FC0111821A
:100BF0001082138212821582148216826115710589
:100C000051F0FB0101900020E9F73197AF01461B3D
:100C1000570B0C94CB0508951F920F920FB60F92AD
:100C200011242F933F934F935F936F937F938F93F1
:100C30009F93AF93BF93EF93FF9380919F01909108
:100C4000A001892B29F0E0919F01F091A001099565
:100C5000FF91EF91BF91AF919F918F917F916F9194
:100C60005F914F913F912F910F900FBE0F901F906A
:100C700018951F920F920FB60F9211242F933F9346
:100C80004F935F936F937F938F939F93AF93BF9394
:100C9000EF93FF9380919D0190919E01892B29F004
:100CA000E0919D01F0919E010995FF91EF91BF9117
:100CB000AF919F918F917F916F915F914F913F91F4
:100CC0002F910F900FBE0F901F9018951F920F92AB
:100CD0000FB60F9211242F933F938F939F93AF934F
:100CE000BF938091950190919601A0919701B09149
:100CF00098013091940123E0230F2D3720F40196C1
:100D0000A11DB11D05C026E8230F0296A11DB11D2E
:100D1000209394018093950190939601A09397015D
:100D2000B09398018091990190919A01A0919B01B3
:100D3000B0919C010196A11DB11D809399019093E2
:100D40009A01A0939B01B0939C01BF91AF919F9199
:100D50008F913F912F910F900FBE0F901F9018957C
:100D6000E0918006F09181060190F081E02D682FDE
:100D700080E896E009940F931F93CF93DF93FC01D3
:100D8000A685B7858D01005C1F4FE8018881998198
:100D900001968F739927AD014E5B5F4FEA01288161
:100DA000398182179307D1F3E80128813981A20F95
:100DB000B31F6C93A685B785A05CBF4F11969C931B
:100DC0008E93A689B7892C9181E090E0078C02C0B0
:100DD000880F991F0A94E2F7822B8C9381E081A3FC
:100DE0000488F589E02D80818064808381E090E033
:100DF000DF91CF911F910F910895FC0181A188236C
:100E000029F0A489B5898C9186FFFBCF11A20895A2
:100E1000FC01A485B585FD01E05CFF4F2081318197
:100E20003296808191812817390779F080819181EC
:100E3000A80FB91F8C91208131812F5F3F4F2F73F5
:100E400033273183208390E008958FEF9FEF08953B
:100E5000DC011C96ED91FC911D97DF01A05CBF4F5A
:100E60002D913C91119712968D919C911197281775
:100E7000390739F08D919C91E80FF91F808190E03E
:100E800008958FEF9FEF0895FC0124853585F901C2
:100E9000E05CFF4F80819181329620813181821BFD
:100EA000930B8F739927089580E896E00C9444077C
:100EB0008F929F92AF92BF92EF92FF920F931F93E8
:100EC000CF93DF93CDB7DEB7A1970FB6F894DEBF0F
:100ED0000FBECDBF162F042F19A2423008F40AE02E
:100EE0007E0121E2E20EF11C802E912CA12CB12C6E
:100EF000612FA50194010E94780F029F10191124FF
:100F000081E0E81AF1081A3014F4105D01C0195C90
:100F1000F7011083122F732FCA01232B242B252BAB
:100F200039F7E114F10469F001900020E9F73197F5
:100F3000AF014E195F09B70180E896E00E941202E6
:100F400002C080E090E0A1960FB6F894DEBF0FBE1D
:100F5000CDBFDF91CF911F910F91FF90EF90BF9088
:100F6000AF909F908F900895CF93DF938DE00E9474
:100F7000B006EC018AE00E94B0068C0F9D1FDF9145
:100F8000CF910895CF92DF92EF92FF92CF93DF93AC
:100F90006C01990FEE08FF08F7FE12C08DE20E9467
:100FA000B006EC0166277727CB016C197D098E0905
:100FB0009F094AE00E9458077C01EC0EFD1E06C006
:100FC0004AE0C701B6010E9458077C010E94B4079D
:100FD0008E0D9F1DDF91CF91FF90EF90DF90CF900E
:100FE0000895EF92FF920F931F93CF93DF937C01AD
:100FF000C0E0D0E000E010E0F70184819581C817DF
:10100000D907D0F4E0918006F09181060190F0813B
:10101000E02DD7012D913C912115310529F0D90101
:10102000AC0FBD1F6C9101C060E080E896E00995AF
:10103000080F191F2196E0CF0E94B407800F911F5F
:10104000DF91CF911F910F91FF90EF9008951F9224
:101050000F920FB60F9211242F933F938F939F936C
:10106000EF93FF932091F0063091F1068091F20604
:101070009091F3062817390731F48091C1008F7DD4
:101080008093C10014C0E091F206F091F306E055A0
:10109000F94F20818091F2069091F30601968F73AB
:1010A00099279093F3068093F2062093C600FF9150
:1010B000EF919F918F913F912F910F900FBE0F90C5
:1010C0001F9018951F920F920FB60F9211242F9315
:1010D0004F935F938F939F93EF93FF938091C00003
:1010E00082FD1CC02091C600809134079091350785
:1010F00001968F73992740913607509137078417CF
:10110000950771F0E0913407F0913507EC50F94FF5
:101110002083909335078093340702C08091C600E6
:10112000FF91EF919F918F915F914F912F910F9030
:101130000FBE0F901F901895CF93DF93CDB7DEB7FA
:10114000A8970FB6F894DEBF0FBECDBF789484B5D4
:10115000826084BD84B5816084BD85B5826085BDB3
:1011600085B5816085BD80916E00816080936E0041
:101170001092810080918100826080938100809133
:1011800081008160809381008091800081608093E4
:1011900080008091B10084608093B1008091B000A4
:1011A00081608093B00080917A00846080937A009F
:1011B00080917A00826080937A0080917A008160C9
:1011C00080937A0080917A00806880937A001092F0
:1011D000C10061E084E00E94AA0261E083E00E9415
:1011E000AA0261E085E00E94AA0260E082E10E941A
:1011F000AA0260E083E10E94AA0262E082E00E940B
:10120000AA028DE092E090939E0180939D018091CF
:1012100069008C7F80936900E89AE0919406F091D0
:10122000950681E090E09C010090A00602C0220F8C
:10123000331F0A94E2F72083E0919006F091910623
:101240001082E0919206F091930620E120831092A3
:10125000A106E0919606F091970640819C010090CE
:101260009C0602C0220F331F0A94E2F7242B20832E
:10127000E0919606F091970640819C0100909D06B2
:1012800002C0220F331F0A94E2F7242B2083E0913F
:101290009606F091970640819C0100909E0602C040
:1012A000220F331F0A94E2F7242B2083E091960645
:1012B000F0919706208100909F0602C0880F991F29
:1012C0000A94E2F780958223808380918100887F51
:1012D0008160809381000E946605809136068111AD
:1012E000BBC02091A9063091AA063AA329A39091E8
:1012F000AB018091AC017090A2014090050150902B
:101300000601A090A301B090A401C090A501D090C7
:10131000A601E090A701F090A8010091A901109109
:10132000AA014091AD065091AE065CA34BA3812C5F
:10133000912C4BA15CA18416950609F472C089A179
:101340009AA1892B29F41092A101E1EAF1E004C0ED
:10135000E9A1FAA1E80DF91D8081082E000C990B76
:1013600080971C01220C331CDC0183E0AA0FBB1FF9
:101370008A95E1F7BEA3ADA33101A0E0B0E0A830AB
:10138000B10561F1EDA1FEA1EA0FFB1FE458FF4F8B
:1013900065917591859194919B01AC01550F220B3C
:1013A000322FA9012D8F3E8F4F8F58A39B01AC0187
:1013B0006D8D762F862F962F6214730421F400E230
:1013C0000E94D10F02C00E94081059016A017B01DE
:1013D0008C013FEF631A730A1496D1CFF20138964D
:1013E0007A2CCF018F509E4FDC01AC9231972A2D81
:1013F0003B2DA601B701C80108E00E94EC0F59017E
:101400006A017B018C01A0E00E94111049F7BFEF37
:101410008B1A9B0A2F0127E0420E511C922D832D1F
:1014200088CF5092060140920501A092A301B0928C
:10143000A401C092A501D092A601E092A701F0926A
:10144000A8010093A9011093AA017092A2019093A0
:10145000AB018093AC010BC080E88093FC058093C6
:10146000040680933F06809347060E948103CC24A4
:10147000C394D12C57E0A52EB12C0E9445030091B6
:101480007C0610917D0620917E0630917F06DC015E
:10149000CB01801B910BA20BB30BCC97A105B1051F
:1014A00008F48DC282E10E943A028C0190930401FB
:1014B0008093030183E10E943A027C019093020130
:1014C00080930101E0EBF3E08491ECE9F3E0949088
:1014D000E8E8F3E08490882079F081110E945102BD
:1014E000E82DF0E0EE0FFF1FE458FC4FA591B491FA
:1014F0008C91982281E009F480E0809300010E94A1
:10150000450360937C0670937D0680937E069093DE
:101510007F060930F2E01F072CF00C3622E012079C
:1015200044F40EC088E092E0801B910B8436910554
:101530003CF0085012401093B0010093AF0104C07A
:101540001092B0011092AF013FE0E31632E0F306D3
:1015500034F042E7E41642E0F40644F410C08EE0B2
:1015600092E08E199F09843691054CF05EE0E51AF1
:1015700052E0F50AF092AE01E092AD0104C0109283
:10158000AE011092AD018091AD019091AE014091FC
:10159000AF015091B00122273327241B350B84174C
:1015A000950734F0281739074CF46FE171E014C047
:1015B0008217930734F062E271E00EC048175907B2
:1015C00034F08217930734F468E271E005C06DE2ED
:1015D00071E002C060E771E0CE0146960E94F60518
:1015E0008A8D9B8D892B91F1EE89FF8980818823DB
:1015F00069F1CE0146960E94F10728C080E896E086
:101600000E94080780937B0689831A820091A606B0
:101610001091A7060F5F1F4FB80182EA96E00E9463
:10162000A405882399F02091A2063091A306809109
:10163000A6069091A706BE016F5F7F4F820F931F92
:101640000E94570F1093A7060093A60680E896E025
:101650000E944407892B91F682EA96E00E94F107E6
:101660008091A6069091A706892B09F440C162E3F8
:1016700071E08091A2069091A3060E944E0F892BE3
:1016800009F035C10E946605188A1F861A8A198AD0
:101690001C8A1B8A1D8A6091A2067091A30661159F
:1016A000710541F04091A6065091A706CE010F9614
:1016B0000E94CB0569E371E0CE0108960E94F60511
:1016C0006DE671E0CE0101960E94F605BE016F5FE6
:1016D0007F4FCE0108960E948A051C01CE0101961B
:1016E0000E9485056FE671E0CE0101960E94F60525
:1016F000BE016F5F7F4FCE0108960E948A058C0164
:10170000CE0101960E9485056FE671E0CE0101963B
:101710000E94F6058C859D852D813E817C01E21A13
:10172000F30A2115310561F1009751F182179307F2
:1017300038F1E816F90620F07C01A1E0EA1AF10878
:101740004884598469807A80C2013FEF2FEF4201BB
:101750008E0C9F1C88169906B8F0B30128A73FA3EA
:101760000E945E0F28A53FA1009771F0AC014419BB
:101770005509E416F50610F0342F252F0196EACF0F
:10178000EE24EA94FE2C02C0E32EF22ECE01019646
:101790000E94850541010F5F1F4F2016310628F476
:1017A000902F812F8101892E982E60E771E0CE0164
:1017B00001960E94F6058C859D858017910780F122
:1017C0008815990508F44C01E885F985E80DF91D9F
:1017D0007080108268857985600F711F61157105B1
:1017E00069F0FB0101900020E9F73197AF01461B3A
:1017F000570BCE0101960E94CB050CC089819A81BE
:10180000009711F00E94E30D1A8219821E821D8238
:101810001C821B8288859985FC01E80DF91D708268
:10182000B2E0EB0EF11C4C855D85E416F50648F43C
:1018300088859985009729F0FC01EE0DFF1D208118
:1018400001C020E0CA0102978417950750F448852B
:1018500059854115510529F0FA01E80FF91F8081DA
:1018600001C080E0022E000C330B2053310930936D
:10187000780620937706082E000C990BC09790935A
:101880007A0680937906CE0101960E94F107809135
:101890007706909178060E94C20780917906909110
:1018A0007A060E94C207CE0101960E948505CE01EC
:1018B00008960E948505CE010F960E9485058091AD
:1018C000790690917A06F501E81BF90B93E0EE0F8B
:1018D000FF1F9A95E1F78091770690917806E80FBF
:1018E000F91FE95CF94F80E880830E946F048091C2
:1018F0003606811104C080913506811163C0809144
:101900003606811156C00E946605D0920801C09229
:101910000701D092F405C092F305D092F205C0926F
:10192000F10581EFE82E81E0F82E2091050130913C
:101930000601C701815F914082179307E4F500E03B
:1019400010E0F701E00FF11F608170E020E030E06F
:1019500040E050E0CB01042E02C0959587950A9493
:10196000E2F78170A82FA295AA0FAA0FA07CC90147
:10197000800F911FFC01E95CF94FA0AFFC01EB5017
:10198000FA4FA0AFFC01EF54FE4FA0AF4F5F5F4F87
:1019900028503109283CEFEF3E07E1F60E946F0422
:1019A0000F5F1F4F0830110561F6FFEFEF1AFF0AB6
:1019B000BCCF0E948103CE0146960E9485050E94FD
:1019C00054075BCD81E08093360645E050E061E747
:1019D00071E080E896E00E9412020E94B4070E9423
:1019E000660580E880932D0680932E0680933F063F
:1019F000809347061092350682CF82EA96E00E94D5
:101A0000850589EA96E00C948505E0E8F6E0138206
:101A1000128288EE93E0A0E0B0E084839583A683F1
:101A2000B78383E191E09183808384EF96E095878B
:101A3000848780EB96E09787868785EC90E0918B92
:101A4000808B84EC90E0938B828B80EC90E0958B84
:101A5000848B81EC90E0978B868B82EC90E0918F69
:101A6000808F86EC90E0938F828F84E0848F83E078
:101A7000858F87E0868F85E0878F81E080A367E789
:101A800071E089EA96E00E94F60560E771E082EA7B
:101A900096E00C94F605F8940C942310CF93DF9302
:101AA0008230910510F482E090E0E0913A07F091E5
:101AB0003B0720E030E0C0E0D0E0309711F14081FA
:101AC000518148175907C0F04817590761F48281BE
:101AD0009381209719F09B838A832BC090933B07B7
:101AE00080933A0726C02115310519F04217530794
:101AF00018F49A01BE01DF01EF010280F381E02DAD
:101B0000DCCF2115310509F1281B390B24303105B3
:101B100090F412968D919C9113976115710521F0A7
:101B2000FB019383828304C090933B0780933A0721
:101B3000FD01329644C0FD01E20FF31F81939193A2
:101B4000225031092D933C933AC0209138073091AF
:101B50003907232B41F420910B0130910C01309374
:101B60003907209338072091090130910A01211586
:101B7000310541F42DB73EB740910D0150910E0152
:101B8000241B350BE0913807F0913907E217F30772
:101B9000A0F42E1B3F0B2817390778F0AC014E5FDD
:101BA0005F4F2417350748F04E0F5F1F50933907DA
:101BB000409338078193919302C0E0E0F0E0CF01B9
:101BC000DF91CF9108950F931F93CF93DF930097E9
:101BD00009F48CC0FC0132971382128200913A07FB
:101BE00010913B070115110581F420813181820F8D
:101BF000931F20913807309139072817390779F555
:101C0000F0933907E093380771C0D80140E050E005
:101C1000AE17BF0750F412962D913C911397AD016A
:101C20002115310509F1D901F3CF9D01DA01338383
:101C3000228360817181860F971F8217930769F451
:101C4000EC0128813981260F371F2E5F3F4F3183EA
:101C500020838A819B8193838283452B29F4F0938F
:101C60003B07E0933A0742C01396FC93EE9312971A
:101C7000ED01499159919E01240F351FE217F30799
:101C800071F480819181840F951F029611969C9327
:101C90008E938281938113969C938E931297E0E0AA
:101CA000F0E0D80112968D919C911397009719F04E
:101CB000F8018C01F6CF8D919C9198012E5F3F4FDA
:101CC000820F931F20913807309139072817390761
:101CD00069F4309729F410923B0710923A0702C03A
:101CE000138212821093390700933807DF91CF9146
:101CF0001F910F910895A0E0B0E0E1E8FEE00C94A0
:101D00009E0FEC01009721F4CB010E944E0DB8C04C
:101D1000FC01E60FF71F9C0122503109E217F3077F
:101D200008F4ACC0D9010D911C9111970617170743
:101D3000B0F00530110508F49FC0C801049786175C
:101D4000970708F499C002501109061B170B01935D
:101D500011936D937C93CF010E94E30D8DC05B01C5
:101D6000A01AB10A4C01800E911EA0913A07B091C1
:101D70003B0740E050E0E12CF12C109709F44AC0F9
:101D8000A815B905D1F56D907C901197630182E09B
:101D9000C80ED11CCA14DB0480F1A3014A195B09E7
:101DA0006A0182E0C80ED11C1296BC90129713965D
:101DB000AC91B5E0CB16D10440F0B282A38351833D
:101DC0004083D9016D937C930AC00E5F1F4FC301FE
:101DD000800F911FF90191838083EB2DFA2FE1147D
:101DE000F10431F0D7011396FC93EE93129744C09F
:101DF000F0933B07E0933A073FC08D919C91119778
:101E00004817590708F4AC017D0112960D90BC915A
:101E1000A02DB3CF80913807909139078815990587
:101E2000E1F446175707C8F48091090190910A011F
:101E3000009741F48DB79EB740910D0150910E016E
:101E4000841B950BE817F907C8F4F0933907E09362
:101E50003807F901718360830FC0CB010E944E0DDA
:101E60007C01009759F0A801BE010E94450FCE01E8
:101E70000E94E30DC70104C0CE0102C080E090E0E3
:101E8000CDB7DEB7EEE00C94BA0FFB01DC0102C067
:101E900001900D9241505040D8F70895FB01DC01AC
:101EA0008D91019080190110D9F3990B0895FB01D0
:101EB000DC0101900D920020E1F70895FB015191A2
:101EC0005523A9F0BF01DC014D9145174111E1F700
:101ED00059F4CD010190002049F04D914015411178
:101EE000C9F3FB014111EFCF81E090E00197089524
:101EF000A1E21A2EAA1BBB1BFD010DC0AA1FBB1F0E
:101F0000EE1FFF1FA217B307E407F50720F0A21B7F
:101F1000B30BE40BF50B661F771F881F991F1A94EC
:101F200069F760957095809590959B01AC01BD0116
:101F3000CF0108952F923F924F925F926F927F92BE
:101F40008F929F92AF92BF92CF92DF92EF92FF92C9
:101F50000F931F93CF93DF93CDB7DEB7CA1BDB0B75
:101F60000FB6F894DEBF0FBECDBF09942A8839881A
:101F700048885F846E847D848C849B84AA84B98421
:101F8000C884DF80EE80FD800C811B81AA81B9812D
:101F9000CE0FD11D0FB6F894DEBF0FBECDBFED0141
:101FA00008950F93083090F0982F872F762F652F84
:101FB000542F432F322F22270850F4CF220F331FE4
:101FC000441F551F661F771F881F991F0A95B2F778
:101FD0000F91089597FB10F8169400080F9308309E
:101FE00098F00850232F342F452F562F672F782F26
:101FF000892F902DF4CF05949795879577956795C0
:1020000057954795379527950A95AAF70F91089503
:102010002A0D3B1D4C1D5D1D6E1D7F1D801F911FD8
:1020200008950024A7FD00942A17300540055005A7
:1020300060057005800590050895EE0FFF1F05905F
:10204000F491E02D099411E0C2EED1E004C0FE014C
:102050000E941D102196C33ED107C9F7F894FFCF07
:10206000010E0208020700080000003C07200000E3
:10207000000000BB061202440708072807FD06758A
:102080007000726967687400646F776E006C6566D3
:1020900074006D6174726978006D61747269783A68
:1020A0005B5B5D2C5B5D2C5B5D2C5B5D2C5B5D2C61
:1020B0005B5D2C5B5D2C5B5D5D3B666F6F64506FA1
:1020C000736974696F6E3A5B332C345D003B003A80
:1020D0000070726573730061626364656667686946
:1020E0006A6B6C6D6E6F70717273747576777879D8
:0220F0007A0074
:00000001FF
