:100000000C94E3010C94A9070C947C070C940B024C
:100010000C940B020C940B020C940B020C940B022C
:100020000C940B020C940B020C940B020C940B021C
:100030000C940B020C940B020C940B020C940B020C
:100040000C94D6070C940B020C9442070C940707EF
:100050000C940B020C940B020C940B020C940B02EC
:100060000C940B020C940B020000000024002700EB
:100070002A0000000000250028002B0000000000DE
:1000800000000000000000000000002F000300003E
:1000900000000003143E14000000143E2A24000057
:1000A00000122A7F0A15050210282A1429160000BA
:1000B000281011290000000000000003120C0000AD
:1000C000000000212100000000000C120E150000AD
:1000D00000150E1F080800000008083E4000000040
:1000E00000000020080800000000080800000000D0
:1000F00000000020081020000001020421120C0062
:10010000000C1221220000000000203F29312200B3
:100110000022252929211200001225291214180075
:100120000000103F252517000019252525251E0054
:1001300000182525091121000001030525251A00B5
:10014000001A252529290600001E29290000000083
:1001500000000024400000000000002414080800F3
:100160000022221414141400001414141422220067
:10017000000808142901020000000609BA422418E8
:100180000000BEAA0B0C300000300C0B25253F00F0
:1001900000001A252121120C0000122121213F000C
:1001A00000001E2125253F000000212505053F00F8
:1001B000000001052921120C00001A2904043F0047
:1001C000003F0404212100000021213F21201000D4
:1001D00000001F210C083F000000211220203F00DA
:1001E0000020202004023F003F02040804023F00D8
:1001F000003F1008211E0000001E212105053F00C0
:1002000000000205211E0000005E21210D053F00B7
:100210000000221525120000001229290101010009
:100220000101013F20201F00001F2020201806018F
:100230000106182008103F003F1008040C1221008E
:100240000021120C040201000102043829312100AE
:1002500000212325213F00000000002104020100AD
:1002600000201008010200000000000220202000F1
:100270000020202001000000000000022A2A1000B7
:10028000003C1A2A24143F000018242424180000DB
:100290000000242424241800003F14242A2A1C00CF
:1002A000000C2A2A3E0800000000000AA4A418003E
:1002B00000007C88043F00000000380400000000BB
:1002C0000000003D848080000000007D103F0000A1
:1002D000000024283F0000000000002008043C002B
:1002E000003C0408083C0000003C040424241800DE
:1002F000001824242428FC00001824242424180096
:1003000000FC2824083C0000000804042A24000003
:100310000000122A3E04000000000424201C0000FB
:10032000003C102020100C00000C10201020300C7D
:100330000C3020101028240000242810508884003D
:10034000000C1020342400000000242C3F0C00007E
:1003500000002121000000000000007F212100009A
:1003600000000C3F08081000000810103F3F3F003D
:10037000003F3F3F000000000000000000000000C0
:1003800023002600290004040404040404040202D7
:100390000202020203030303030301020408102004
:1003A000408001020408102001020408102000000F
:1003B0000007000201000003040600000000000026
:1003C000000020089C0C11241FBECFEFD8E0DEBF38
:1003D000CDBF11E0A0E0B1E0ECEBFEE102C0059082
:1003E0000D92A436B107D9F727E0A4E6B1E001C029
:1003F0001D92AE30B207E1F711E0C2EED1E004C0C9
:100400002197FE010E944B0FC13ED107C9F70E9400
:1004100066080C94A40C0C9400000F931F93CF93C8
:10042000DF93CAEDD6E0E881F9810190F081E02DFB
:100430006DE0CE0109958C01E881F9810190F08190
:10044000E02D6AE0CE010995800F911FDF91CF91D9
:100450001F910F9108950F931F93CF93DF93FC018A
:10046000A685B7858D01005C1F4FE80188819981C1
:1004700001968F739927AD014E5B5F4FEA0128818A
:10048000398182179307D1F3E80128813981A20FBE
:10049000B31F6C93A685B785A05CBF4F11969C9344
:1004A0008E93A689B7892C9181E090E0078C02C0D9
:1004B000880F991F0A94E2F7822B8C9381E081A325
:1004C0000488F589E02D80818064808381E090E05C
:1004D000DF91CF911F910F910895FC0181A1882395
:1004E00029F0A489B5898C9186FFFBCF11A20895CC
:1004F000FC01A485B585FD01E05CFF4F20813181C1
:100500003296808191812817390779F08081918115
:10051000A80FB91F8C91208131812F5F3F4F2F731E
:1005200033273183208390E008958FEF9FEF089564
:10053000DC011C96ED91FC911D97DF01A05CBF4F83
:100540002D913C91119712968D919C91119728179E
:10055000390739F08D919C91E80FF91F808190E067
:1005600008958FEF9FEF0895FC0124853585F901EB
:10057000E05CFF4F80819181329620813181821B26
:10058000930B8F73992708958AED96E00C94B4022B
:1005900081E080934B0608950895CF92DF92EF9209
:1005A000FF920F931F93CF93DF936C01EB017B01BD
:1005B000E40EF51E00E010E0CE15DF0561F0699154
:1005C000D601ED91FC910190F081E02DC6010995D5
:1005D000080F191FF1CFC801DF91CF911F910F9123
:1005E000FF90EF90DF90CF900895FC01248135813A
:1005F0006217730748F480819181009729F0FC010C
:10060000E60FF71F8081089580E00895EF92FF9232
:100610000F931F93CF93DF937C01C0E0D0E000E005
:1006200010E0F70184819581C817D90798F4BE01BD
:10063000C7010E94F502E091DA06F091DB06019015
:10064000F081E02D682F8AED96E00995080F191FBB
:100650002196E7CF0E940D02800F911FDF91CF916D
:100660001F910F91FF90EF9008958E3008F08E50FB
:100670008770806480937C0080917A00806480938E
:100680007A0080917A0086FDFCCF809178002091DD
:10069000790090E0922B0895833081F028F4813026
:1006A00099F08230A1F008958630A9F08730B9F032
:1006B0008430D1F4809180008F7D03C080918000D0
:1006C0008F7780938000089584B58F7702C084B5BA
:1006D0008F7D84BD08958091B0008F7703C0809195
:1006E000B0008F7D8093B00008951F93CF93DF9368
:1006F000282F30E0F901E255FC4F8491F901E656CC
:10070000FC4FD491F901EA57FC4FC491CC23C9F0B6
:10071000162F81110E944C03EC2FF0E0EE0FFF1F0B
:10072000EE58FF4FA591B4918FB7F894111105C001
:100730009C91ED2FE095E92302C0EC91ED2BEC9319
:100740008FBFDF91CF911F910895CF93DF9390E0FA
:10075000FC01E656FC4F2491FC01EA57FC4F8491C2
:10076000882361F190E0880F991FFC01E859FF4F41
:10077000C591D491FC01EE58FF4FA591B491611140
:1007800009C09FB7F8948881209582238883EC91D3
:100790002E230BC0623061F49FB7F8943881822F0A
:1007A000809583238883EC912E2B2C939FBF06C0CA
:1007B0008FB7F894E8812E2B28838FBFDF91CF91DC
:1007C00008951F93CF93DF93182FEB0161E00E94F0
:1007D000A503209711F460E004C0CF3FD10539F4A0
:1007E00061E0812FDF91CF911F910C947503E12F70
:1007F000F0E0E255FC4FE491E330F9F048F4E130E9
:10080000B9F0E230A1F584B5806284BDC8BD34C0C2
:10081000E630E9F0E73019F1E43049F580918000E5
:10082000806280938000D0938B00C0938A0024C0A4
:1008300084B5806884BDC7BD1FC08091800080687A
:1008400080938000D0938900C093880015C0809168
:10085000B00080688093B000C093B3000DC0809159
:10086000B00080628093B000C093B40005C0C0386F
:10087000D1050CF0B5CFAFCFDF91CF911F91089587
:100880003FB7F89480916B0190916C01A0916D013C
:10089000B0916E0126B5A89B05C02F3F19F00196B7
:1008A000A11DB11D3FBFBA2FA92F982F8827820FF6
:1008B000911DA11DB11DBC01CD0142E0660F771F46
:1008C000881F991F4A95D1F7089520E030E090E005
:1008D000AC01022E02C0559547950A94E2F740FFFD
:1008E00002C05B9A01C05B985D9A5D982F5F3F4F95
:1008F0002830310569F708952F923F924F925F9209
:100900006F927F928F929F92AF92BF92CF92DF921F
:10091000EF92FF920F931F93CF93DF9300D01F921C
:10092000CDB7DEB787E8682E81E0782E0BE016E0C1
:100930009BECE92E95E0F92E1B821A8222E7C22E4B
:10094000D12CAA24AA94B12C4AEE842E912C81E0B9
:100950000A8001C0880F0A94EAF78983412C512C40
:1009600099819093650181E0042C01C0880F0A945D
:10097000EAF7809364011701240C351CF101808192
:10098000882309F15C9880E00E94650480E00E9461
:100990006504809164010E946504F1018081B501C4
:1009A000681B71098AE00E94E103809165010E9441
:1009B00065045C9AC4010197F1F76FEF70E08AE07B
:1009C0000E94E10303C0C6010197F1F71801240C4E
:1009D000351CF1018081882309F15C9880E00E9438
:1009E0006504809164010E946504F1018081B50174
:1009F000681B71098AE00E94E10380E00E9465049F
:100A0000809165010E9465045C9AC4010197F1F729
:100A10006FEF70E08AE00E94E10303C0C601019716
:100A2000F1F7F301E40DF51D8081882301F15C9855
:100A30008081B501681B71098AE00E94E103809101
:100A400064010E94650480E00E94650480E00E94C9
:100A50006504809165010E9465045C9AC401019758
:100A6000F1F76FEF70E08AE00E94E10303C0C60176
:100A70000197F1F7FFEF4F1A5F0A88E0481651041B
:100A800009F06ECFEA81FB813196FB83EA83F8E0BF
:100A90006F0E711C085F1F4F88E0E80EF11CEA81A1
:100AA000FB81389709F053CF0F900F900F90DF9193
:100AB000CF911F910F91FF90EF90DF90CF90BF905B
:100AC000AF909F908F907F906F905F904F903F90EE
:100AD0002F9008952F923F924F925F926F927F9244
:100AE0008F929F92AF92BF92CF92DF92EF92FF923E
:100AF0000F931F93CF93DF9300D01F92CDB7DEB734
:100B000087E8682E81E0782E0BE016E09BECE92E5A
:100B100095E0F92E1B821A8222E7C22ED12CAA243C
:100B2000AA94B12C4AEE842E912C80914B0681110F
:100B3000B2C081E00A8001C0880F0A94EAF7898375
:100B4000412C512C99819093650181E0042C01C0C6
:100B5000880F0A94EAF78093640180914B068823FA
:100B600091F0EA81FB813196FB83EA83F8E06F0E16
:100B7000711C085F1F4F88E0E80EF11CEA81FB81C1
:100B8000389799F688C01701240C351CF101808133
:100B9000882309F15C9880E00E94650480E00E944F
:100BA0006504809164010E946504F1018081B501B2
:100BB000681B71098AE00E94E103809165010E942F
:100BC00065045C9AC4010197F1F76FEF70E08AE069
:100BD0000E94E10303C0C6010197F1F71801240C3C
:100BE000351CF1018081882309F15C9880E00E9426
:100BF0006504809164010E946504F1018081B50162
:100C0000681B71098AE00E94E10380E00E9465048C
:100C1000809165010E9465045C9AC4010197F1F717
:100C20006FEF70E08AE00E94E10303C0C601019704
:100C3000F1F7F301E40DF51D8081882301F15C9843
:100C40008081B501681B71098AE00E94E1038091EF
:100C500064010E94650480E00E94650480E00E94B7
:100C60006504809165010E9465045C9AC401019746
:100C7000F1F76FEF70E08AE00E94E10303C0C60164
:100C80000197F1F7FFEF4F1A5F0A88E04816510409
:100C900009F058CF66CF0F900F900F90DF91CF9152
:100CA0001F910F91FF90EF90DF90CF90BF90AF908A
:100CB0009F908F907F906F905F904F903F902F907C
:100CC000089540E050E020E030E0C901840F951F16
:100CD000FC01E553FA4F1082FC01E55FF94F1082E9
:100CE000FC01E957FE4F10822F5F3F4F283031053E
:100CF00061F7485F5F4F4034510529F70C946A054E
:100D0000FC01808191810C943C0DCF93DF93FC0119
:100D100024813581232B71F0FB01DC01CD91DC9125
:100D200060817181CE010E94AE0E009719F08C1B7C
:100D30009D0B02C08FEF9FEFDF91CF9108950F932E
:100D40001F93CF93DF93EC0188819981009729F05D
:100D50002A813B812617370788F48B016F5F7F4F0D
:100D60000E94D40D009761F0998388831B830A83C6
:100D70002C813D81232B11F4FC01108281E001C004
:100D800080E0DF91CF911F910F910895EF92FF9234
:100D90000F931F93CF93DF93EC017B018A01BA017C
:100DA0000E949F062881398181110DC021153105CE
:100DB00019F0C9010E943C0D198218821D821C8203
:100DC0001B821A8206C01D830C83B701C9010E94D1
:100DD000A70ECE01DF91CF911F910F91FF90EF9061
:100DE0000895FC01118210821382128215821482EE
:100DF00016826115710551F0FB0101900020E9F7A1
:100E00003197AF01461B570B0C94C60608951F92ED
:100E10000F920FB60F9211242F933F938F939F93AE
:100E2000EF93FF9320919206309193068091940660
:100E3000909195062817390731F48091C1008F7D74
:100E40008093C10014C0E0919406F0919506EE5A8B
:100E5000F94F2081809194069091950601968F73A9
:100E6000992790939506809394062093C600FF914E
:100E7000EF919F918F913F912F910F900FBE0F9007
:100E80001F9018951F920F920FB60F9211242F9357
:100E90004F935F938F939F93EF93FF938091C00045
:100EA00082FD1CC02091C6008091D6069091D70685
:100EB00001968F7399274091D8065091D9068417CF
:100EC000950771F0E091D606F091D706EA56F94FF2
:100ED00020839093D7068093D60602C08091C600E7
:100EE000FF91EF919F918F915F914F912F910F9073
:100EF0000FBE0F901F9018951F920F920FB60F9272
:100F000011242F933F934F935F936F937F938F930E
:100F10009F93AF93BF93EF93FF9380917101909153
:100F20007201892B29F0E0917101F091720109950C
:100F3000FF91EF91BF91AF919F918F917F916F91B1
:100F40005F914F913F912F910F900FBE0F901F9087
:100F500018951F920F920FB60F9211242F933F9363
:100F60004F935F936F937F938F939F93AF93BF93B1
:100F7000EF93FF9380916F0190917001892B29F07D
:100F8000E0916F01F09170010995FF91EF91BF9190
:100F9000AF919F918F917F916F915F914F913F9111
:100FA0002F910F900FBE0F901F9018951F920F92C8
:100FB0000FB60F9211242F933F938F939F93AF936C
:100FC000BF938091670190916801A0916901B091F0
:100FD0006A013091660123E0230F2D3720F401963A
:100FE000A11DB11D05C026E8230F0296A11DB11D4C
:100FF000209366018093670190936801A093690133
:10100000B0936A0180916B0190916C01A0916D0188
:10101000B0916E010196A11DB11D80936B0190935B
:101020006C01A0936D01B0936E01BF91AF919F9140
:101030008F913F912F910F900FBE0F901F90189599
:10104000EAEDF6E01382128288EE93E0A0E0B0E0D1
:1010500084839583A683B78383E191E09183808322
:1010600086E996E09587848782E596E0978786876C
:1010700085EC90E0918B808B84EC90E0938B828B5D
:1010800080EC90E0958B848B81EC90E0978B868B45
:1010900082EC90E0918F808F86EC90E0938F828F2E
:1010A00084E0848F83E0858F87E0868F85E0878F5B
:1010B00081E080A36FE171E083E097E00E94F10698
:1010C00060E571E08CEF96E00C94F106CF93DF932E
:1010D000CDB7DEB7A7970FB6F894DEBF0FBECDBF72
:1010E000789484B5826084BD84B5816084BD85B503
:1010F000826085BD85B5816085BD80916E0081600F
:1011000080936E00109281008091810082608093B4
:1011100081008091810081608093810080918000B6
:101120008160809380008091B10084608093B100E1
:101130008091B00081608093B00080917A008460DB
:1011400080937A0080917A00826080937A00809107
:101150007A00816080937A0080917A008068809321
:101160007A001092C10061E084E00E94A50361E072
:1011700083E00E94A50361E085E00E94A50360E092
:1011800082E10E94A50360E083E10E94A50362E082
:1011900082E00E94A50388EC92E090937001809316
:1011A0006F01809169008C7F80936900E89AE091DB
:1011B000EE06F091EF0681E090E09C010090FA06C7
:1011C00002C0220F331F0A94E2F72083E091EA065F
:1011D000F091EB061082E091EC06F091ED0620E133
:1011E00020831092FB06E091F006F091F106408119
:1011F0009C010090F60602C0220F331F0A94E2F70A
:10120000242B2083E091F006F091F10640819C01AF
:101210000090F70602C0220F331F0A94E2F7242B36
:101220002083E091F006F091F10640819C0100904E
:10123000F80602C0220F331F0A94E2F7242B208302
:10124000E091F006F091F10620810090F90602C0CD
:10125000880F991F0A94E2F78095822380838091FA
:101260008100887F8160809381000E946106809167
:101270004C068111BBC020910307309104073AA3AB
:1012800029A390917D0180917E017090740140901E
:10129000050150900601A0907501B0907601C090B4
:1012A0007701D0907801E0907901F0907A01009177
:1012B0007B0110917C0140910707509108075CA3C6
:1012C0004BA3812C912C4BA15CA18416950609F4AB
:1012D00072C089A19AA1892B29F410927301E3E7C6
:1012E000F1E004C0E9A1FAA1E80DF91D8081082E02
:1012F000000C990B80971C01220C331CDC0183E04D
:10130000AA0FBB1F8A95E1F7BEA3ADA33101A0E0F0
:10131000B0E0A830B10561F1EDA1FEA1EA0FFB1F1D
:10132000E458FF4F65917591859194919B01AC01B3
:10133000550F220B322FA9012D8F3E8F4F8F58A3AF
:101340009B01AC016D8D762F862F962F621473044E
:1013500021F400E20E94FF0E02C00E94360F5901E4
:101360006A017B018C013FEF631A730A1496D1CF97
:10137000F20138967A2CCF0189539E4FDC01AC9252
:1013800031972A2D3B2DA601B701C80108E00E9424
:101390001A0F59016A017B018C01A0E00E943F0FE6
:1013A00049F7BFEF8B1A9B0A2F0127E0420E511C11
:1013B000922D832D88CF5092060140920501A09274
:1013C0007501B0927601C0927701D0927801E092D7
:1013D0007901F0927A0100937B0110937C01709265
:1013E000740190937D0180937E010BC080E880930F
:1013F000120680931A068093D3058093DB050E9422
:101400007C0460EB262E63E0362E7CE9672E73E0C9
:10141000772EE8E88E2EE3E09E2ECC24C394D12CC8
:10142000A7E3AA2EB12C0E94400400914E06109111
:101430004F062091500630915106DC01CB01801BF4
:10144000910BA20BB30BCC97A105B10508F456C2C2
:1014500082E10E9435038C01909304018093030183
:1014600083E10E9435037C01909302018093010186
:10147000F1018491F3015490F4014490442079F0F7
:1014800081110E944C03E42DF0E0EE0FFF1FE458A1
:10149000FC4FA591B4918C91582281E009F480E031
:1014A000809300010E94400460934E0670934F06A3
:1014B00080935006909351060930F2E01F072CF0FC
:1014C0000C3622E0120744F40EC088E092E0801B44
:1014D000910B843691053CF0085012401093860120
:1014E0000093850104C010928601109285013FE0AF
:1014F000E31632E0F30634F042E7E41642E0F40685
:1015000044F410C08EE092E08E199F098436910554
:101510004CF05EE0E51A52E0F50AF0928401E092A8
:10152000830104C010928401109283018091830191
:1015300090918401409185015091860122273327A3
:10154000241B350B8417950734F0281739074CF402
:101550006AE371E014C08217930734F06DE371E021
:101560000EC04817590734F08217930734F463E428
:1015700071E005C068E471E002C060E571E0CE0191
:1015800046960E94F1068A8D9B8D892B91F1EE89FA
:10159000FF898081882369F1CE0146960E94060367
:1015A00028C08AED96E00E94780280934D068983D8
:1015B0001A8200910007109101070F5F1F4FB801B9
:1015C0008CEF96E00E949F06882399F02091FC06FC
:1015D0003091FD068091000790910107BE016F5F79
:1015E0007F4F820F931F0E94A70E10930107009355
:1015F00000078AED96E00E94B402892B91F68CEFE9
:1016000096E00E94060380910007909101070297DF
:1016100008F404C10E946106188A1F861A8A198A72
:101620001C8A1B8A1D8A6091FC067091FD0661155B
:10163000710541F04091000750910107CE010F96CE
:101640000E94C6066DE471E0CE0101960E94F1068B
:10165000BE016F5F7F4FCE010F960E9485062C0161
:10166000CE0101960E9480066FE471E0CE010196E2
:101670000E94F106BE016F5F7F4FCE010F960E9460
:1016800085067C01CE0101960E94800682018FEFC3
:10169000E81AF80A4E145F0428F49E2D8F2D72016B
:1016A000092F182F60E571E0CE0108960E94F1061F
:1016B0008B899C898E159F0580F18017910708F40E
:1016C0008C01EF85F889E00FF11F508010826F8543
:1016D00078896E0D7F1D6115710569F0FB01019020
:1016E0000020E9F73197AF01461B570BCE01089652
:1016F0000E94C6060CC088859985009711F00E944B
:101700003C0D198618861D861C861B861A868F85B9
:101710009889FC01E00FF11F5082EC84FD84412C7C
:10172000512C40E84E145F0430F5B201CE0108960A
:101730004FA30E94F502082F880F110BB2016E5FB4
:101740007F4FCE0108960E94F5029501201B310BB8
:1017500043E0220F331F4A95E1F7255F394F280FE9
:10176000311D87FD3A95F901F0974FA1408394E030
:10177000490E511CD7CF61E571E0CE0101960E9460
:10178000F106BE016F5F7F4FCE010F960E94850666
:101790008C01CE0101960E94800610161106A4F558
:1017A000EB88FC88B70163507109CE010F960E9447
:1017B000F502182FB70161507109CE010F960E94F2
:1017C000F502282F812F110F990BAC0140535109BD
:1017D0005093820140938101022E000C330B205361
:1017E00031093093800120937F01F501E81BF90B4B
:1017F00093E0EE0FFF1F9A95E1F72E0F3F1FF901BF
:10180000E553FA4F80E880830E946A05CE0108966E
:101810000E948006CE010F960E94800640E050E0B4
:1018200060E571E08CEF96E00E94C60680914C0660
:10183000811104C080914B06811163C080914C06D8
:10184000811156C00E946106D0920801C092070122
:10185000D092CA05C092C905D092C805C092C705EA
:1018600087ECE82E81E0F82E2091050130910601E9
:10187000C701875C914082179307E4F500E010E010
:10188000F701E00FF11F608170E020E030E040E000
:1018900050E0CB01042E02C0959587950A94E2F79B
:1018A0008170A82FA295AA0FAA0FA07CC901800F52
:1018B000911FFC01E553FA4FA0AFFC01E55FF94F22
:1018C000A0AFFC01E957FE4FA0AF4F5F5F4F28501C
:1018D0003109283CAFEF3A07E1F60E946A050F5F35
:1018E0001F4F0830110561F6BFEFEB1AFB0ABCCFA2
:1018F0000E947C04CE0146960E9480060E94C4028B
:1019000092CD81E080934C0645E050E06EE571E0B9
:101910008AED96E00E94CD020E940D020E946106AF
:1019200080E880934306809344068093D305809398
:10193000DB0510924B0682CF8CEF96E00E9480066A
:1019400083E097E00C948006F8940C94510FCF93A9
:10195000DF938230910510F482E090E0E0910C0773
:10196000F0910D0720E030E0C0E0D0E0309711F1B9
:101970004081518148175907C0F04817590761F451
:1019800082819381209719F09B838A832BC0909347
:101990000D0780930C0726C02115310519F0421759
:1019A000530718F49A01BE01DF01EF010280F381B1
:1019B000E02DDCCF2115310509F1281B390B24302E
:1019C000310590F412968D919C91139761157105D4
:1019D00021F0FB019383828304C090930D078093D1
:1019E0000C07FD01329644C0FD01E20FF31F819305
:1019F0009193225031092D933C933AC020910A07CC
:101A000030910B07232B41F420910B0130910C01F5
:101A100030930B0720930A072091090130910A01A6
:101A20002115310541F42DB73EB740910D0150917C
:101A30000E01241B350BE0910A07F0910B07E2170A
:101A4000F307A0F42E1B3F0B2817390778F0AC01E1
:101A50004E5F5F4F2417350748F04E0F5F1F5093BE
:101A60000B0740930A078193919302C0E0E0F0E0F6
:101A7000CF01DF91CF9108950F931F93CF93DF9301
:101A8000009709F48CC0FC013297138212820091F6
:101A90000C0710910D070115110581F4208131818A
:101AA000820F931F20910A0730910B0728173907DF
:101AB00079F5F0930B07E0930A0771C0D80140E075
:101AC00050E0AE17BF0750F412962D913C9113973A
:101AD000AD012115310509F1D901F3CF9D01DA01DD
:101AE0003383228360817181860F971F821793074A
:101AF00069F4EC0128813981260F371F2E5F3F4F93
:101B0000318320838A819B8193838283452B29F4AF
:101B1000F0930D07E0930C0742C01396FC93EE93ED
:101B20001297ED01499159919E01240F351FE2173B
:101B3000F30771F480819181840F951F02961196AD
:101B40009C938E938281938113969C938E9312978C
:101B5000E0E0F0E0D80112968D919C9113970097E8
:101B600019F0F8018C01F6CF8D919C9198012E5FB0
:101B70003F4F820F931F20910A0730910B072817C0
:101B8000390769F4309729F410920D0710920C0769
:101B900002C01382128210930B0700930A07DF9191
:101BA000CF911F910F910895A0E0B0E0EAEDFDE024
:101BB0000C94CC0EEC01009721F4CB010E94A70CF1
:101BC000B8C0FC01E60FF71F9C0122503109E21753
:101BD000F30708F4ACC0D9010D911C9111970617B9
:101BE0001707B0F00530110508F49FC0C80104972D
:101BF0008617970708F499C002501109061B170BA6
:101C0000019311936D937C93CF010E943C0D8DC085
:101C10005B01A01AB10A4C01800E911EA0910C0725
:101C2000B0910D0740E050E0E12CF12C109709F441
:101C30004AC0A815B905D1F56D907C901197630144
:101C400082E0C80ED11CCA14DB0480F1A3014A193A
:101C50005B096A0182E0C80ED11C1296BC901297F3
:101C60001396AC91B5E0CB16D10440F0B282A383B9
:101C700051834083D9016D937C930AC00E5F1F4F3F
:101C8000C301800F911FF90191838083EB2DFA2FFF
:101C9000E114F10431F0D7011396FC93EE931297FF
:101CA00044C0F0930D07E0930C073FC08D919C91C9
:101CB00011974817590708F4AC017D0112960D9051
:101CC000BC91A02DB3CF80910A0790910B07881586
:101CD0009905E1F446175707C8F4809109019091DE
:101CE0000A01009741F48DB79EB740910D015091C4
:101CF0000E01841B950BE817F907C8F4F0930B0746
:101D0000E0930A07F901718360830FC0CB010E9441
:101D1000A70C7C01009759F0A801BE010E949E0EFD
:101D2000CE010E943C0DC70104C0CE0102C080E07C
:101D300090E0CDB7DEB7EEE00C94E80EFB01DC01DD
:101D400002C001900D9241505040D8F70895FB0118
:101D5000DC0101900D920020E1F70895FB01519103
:101D60005523A9F0BF01DC014D9145174111E1F761
:101D700059F4CD010190002049F04D9140154111D9
:101D8000C9F3FB014111EFCF81E090E00197089585
:101D90002F923F924F925F926F927F928F929F927B
:101DA000AF92BF92CF92DF92EF92FF920F931F9369
:101DB000CF93DF93CDB7DEB7CA1BDB0B0FB6F8941A
:101DC000DEBF0FBECDBF09942A88398848885F845A
:101DD0006E847D848C849B84AA84B984C884DF80CB
:101DE000EE80FD800C811B81AA81B981CE0FD11DAF
:101DF0000FB6F894DEBF0FBECDBFED0108950F936F
:101E0000083090F0982F872F762F652F542F432F6F
:101E1000322F22270850F4CF220F331F441F551FA3
:101E2000661F771F881F991F0A95B2F70F910895B3
:101E300097FB10F8169400080F93083098F008509C
:101E4000232F342F452F562F672F782F892F902D32
:101E5000F4CF05949795879577956795579547950E
:101E6000379527950A95AAF70F9108952A0D3B1DDE
:101E70004C1D5D1D6E1D7F1D801F911F0895002448
:101E8000A7FD00942A173005400550056005700530
:101E9000800590050895EE0FFF1F0590F491E02D49
:101EA000099411E0C2EED1E004C0FE010E944B0F84
:0C1EB0002196C33ED107C9F7F894FFCF7C
:101EBC00010E0208020700080000000E07200000B7
:101ECC000000002B02CD02B402780298026D026170
:101EDC0062636465666768696A6B6C6D6E6F70715E
:101EEC0072737475767778797A0075700072696799
:101EFC00687400646F776E006C656674003B003A22
:101F0C0000666F6F64506F736974696F6E007072E6
:041F1C006573730076
:00000001FF
