:100000000C94E3010C94F9070C94CC070C940B02AC
:100010000C940B020C940B020C940B020C940B022C
:100020000C940B020C940B020C940B020C940B021C
:100030000C940B020C940B020C940B020C940B020C
:100040000C9426080C940B020C9492070C945707FE
:100050000C940B020C940B020C940B020C940B02EC
:100060000C940B020C940B020000000024002700EB
:100070002A0000000000250028002B0000000000DE
:1000800000000000000000000000002F000300003E
:1000900000000003143E14000000143E2A24000057
:1000A00000122A7F0A15050210282A1429160000BA
:1000B000281011290000000000000003120C0000AD
:1000C000000000212100000000000C120E150000AD
:1000D00000150E1F080800000008083E4000000040
:1000E00000000020080800000000080800000000D0
:1000F00000000020081020000001020421120C0062
:10010000000C1221220000000000203F29312200B3
:100110000022252929211200001225291214180075
:100120000000103F252517000019252525251E0054
:1001300000182525091121000001030525251A00B5
:10014000001A252529290600001E29290000000083
:1001500000000024400000000000002414080800F3
:100160000022221414141400001414141422220067
:10017000000808142901020000000609BA422418E8
:100180000000BEAA0B0C300000300C0B25253F00F0
:1001900000001A252121120C0000122121213F000C
:1001A00000001E2125253F000000212505053F00F8
:1001B000000001052921120C00001A2904043F0047
:1001C000003F0404212100000021213F21201000D4
:1001D00000001F210C083F000000211220203F00DA
:1001E0000020202004023F003F02040804023F00D8
:1001F000003F1008211E0000001E212105053F00C0
:1002000000000205211E0000005E21210D053F00B7
:100210000000221525120000001229290101010009
:100220000101013F20201F00001F2020201806018F
:100230000106182008103F003F1008040C1221008E
:100240000021120C040201000102043829312100AE
:1002500000212325213F00000000002104020100AD
:1002600000201008010200000000000220202000F1
:100270000020202001000000000000022A2A1000B7
:10028000003C1A2A24143F000018242424180000DB
:100290000000242424241800003F14242A2A1C00CF
:1002A000000C2A2A3E0800000000000AA4A418003E
:1002B00000007C88043F00000000380400000000BB
:1002C0000000003D848080000000007D103F0000A1
:1002D000000024283F0000000000002008043C002B
:1002E000003C0408083C0000003C040424241800DE
:1002F000001824242428FC00001824242424180096
:1003000000FC2824083C0000000804042A24000003
:100310000000122A3E04000000000424201C0000FB
:10032000003C102020100C00000C10201020300C7D
:100330000C3020101028240000242810508884003D
:10034000000C1020342400000000242C3F0C00007E
:1003500000002121000000000000007F212100009A
:1003600000000C3F08081000000810103F3F3F003D
:10037000003F3F3F000000000000000000000000C0
:1003800023002600290004040404040404040202D7
:100390000202020203030303030301020408102004
:1003A000408001020408102001020408102000000F
:1003B0000007000201000003040600000000000026
:1003C00000007008FF0B11241FBECFEFD8E0DEBF86
:1003D000CDBF11E0A0E0B1E0EAECFDE102C0059084
:1003E0000D92A035B107D9F726E0A0E5B1E001C034
:1003F0001D92AE3EB207E1F711E0C2EED1E004C0BB
:100400002197FE010E94D20EC13ED107C9F70E947A
:10041000BA080C94050C0C9400000F931F93CF9313
:10042000DF93C1ECD6E0E881F9810190F081E02D05
:100430006DE0CE0109958C01E881F9810190F08190
:10044000E02D6AE0CE010995800F911FDF91CF91D9
:100450001F910F9108950F931F93CF93DF93FC018A
:10046000A685B7858D01005C1F4FE80188819981C1
:1004700001968F739927AD014E5B5F4FEA0128818A
:10048000398182179307D1F3E80128813981A20FBE
:10049000B31F6C93A685B785A05CBF4F11969C9344
:1004A0008E93A689B7892C9181E090E0078C02C0D9
:1004B000880F991F0A94E2F7822B8C9381E081A325
:1004C0000488F589E02D80818064808381E090E05C
:1004D000DF91CF911F910F910895FC0181A1882395
:1004E00029F0A489B5898C9186FFFBCF11A20895CC
:1004F000FC01A485B585FD01E05CFF4F20813181C1
:100500003296808191812817390779F08081918115
:10051000A80FB91F8C91208131812F5F3F4F2F731E
:1005200033273183208390E008958FEF9FEF089564
:10053000DC011C96ED91FC911D97DF01A05CBF4F83
:100540002D913C91119712968D919C91119728179E
:10055000390739F08D919C91E80FF91F808190E067
:1005600008958FEF9FEF0895FC0124853585F901EB
:10057000E05CFF4F80819181329620813181821B26
:10058000930B8F739927089581EC96E00C94B40235
:1005900081E080932F0608950895CF92DF92EF9225
:1005A000FF920F931F93CF93DF936C01EB017B01BD
:1005B000E40EF51E00E010E0CE15DF0561F0699154
:1005C000D601ED91FC910190F081E02DC6010995D5
:1005D000080F191FF1CFC801DF91CF911F910F9123
:1005E000FF90EF90DF90CF9008958E3008F08E50FE
:1005F0008770806480937C0080917A00806480930F
:100600007A0080917A0086FDFCCF8091780020915D
:10061000790090E0922B0895833081F028F48130A6
:1006200099F08230A1F008958630A9F08730B9F0B2
:100630008430D1F4809180008F7D03C08091800050
:100640008F7780938000089584B58F7702C084B53A
:100650008F7D84BD08958091B0008F7703C0809115
:10066000B0008F7D8093B00008951F93CF93DF93E8
:10067000282F30E0F901E255FC4F8491F901E6564C
:10068000FC4FD491F901EA57FC4FC491CC23C9F037
:10069000162F81110E940C03EC2FF0E0EE0FFF1FCC
:1006A000EE58FF4FA591B4918FB7F894111105C082
:1006B0009C91ED2FE095E92302C0EC91ED2BEC939A
:1006C0008FBFDF91CF911F910895CF93DF9390E07B
:1006D000FC01E656FC4F2491FC01EA57FC4F849143
:1006E000882361F190E0880F991FFC01E859FF4FC2
:1006F000C591D491FC01EE58FF4FA591B4916111C1
:1007000009C09FB7F8948881209582238883EC9153
:100710002E230BC0623061F49FB7F8943881822F8A
:10072000809583238883EC912E2B2C939FBF06C04A
:100730008FB7F894E8812E2B28838FBFDF91CF915C
:1007400008951F93CF93DF93182FEB0161E00E9470
:100750006503209711F460E004C0CF3FD10539F460
:1007600061E0812FDF91CF911F910C943503E12F30
:10077000F0E0E255FC4FE491E330F9F048F4E13069
:10078000B9F0E230A1F584B5806284BDC8BD34C043
:10079000E630E9F0E73019F1E43049F58091800066
:1007A000806280938000D0938B00C0938A0024C025
:1007B00084B5806884BDC7BD1FC0809180008068FB
:1007C00080938000D0938900C093880015C08091E9
:1007D000B00080688093B000C093B3000DC08091DA
:1007E000B00080628093B000C093B40005C0C038F0
:1007F000D1050CF0B5CFAFCFDF91CF911F91089508
:100800003FB7F8948091570190915801A0915901F8
:10081000B0915A0126B5A89B05C02F3F19F001964B
:10082000A11DB11D3FBFBA2FA92F982F8827820F76
:10083000911DA11DB11DBC01CD0142E0660F771FC6
:10084000881F991F4A95D1F7089520E030E090E085
:10085000AC01022E02C0559547950A94E2F740FF7D
:1008600002C05B9A01C05B985D9A5D982F5F3F4F15
:100870002830310569F708952F923F924F925F9289
:100880006F927F928F929F92AF92BF92CF92DF92A0
:10089000EF92FF920F931F93CF93DF9300D01F929D
:1008A000CDB7DEB78BE6682E81E0782E0FEE15E02F
:1008B0009FEAE92E95E0F92E1B821A8222E7C22ECA
:1008C000D12CAA24AA94B12C4AEE842E912C81E03A
:1008D0000A8001C0880F0A94EAF78983412C512CC1
:1008E00099819093510181E0042C01C0880F0A94F2
:1008F000EAF7809350011701240C351CF101808127
:10090000882309F15C9880E00E94250480E00E9421
:100910002504809150010E942504F1018081B501D8
:10092000681B71098AE00E94A103809151010E9415
:1009300025045C9AC4010197F1F76FEF70E08AE03B
:100940000E94A10303C0C6010197F1F71801240C0E
:10095000351CF1018081882309F15C9880E00E94B8
:100960002504809150010E942504F1018081B50188
:10097000681B71098AE00E94A10380E00E9425049F
:10098000809151010E9425045C9AC4010197F1F7FE
:100990006FEF70E08AE00E94A10303C0C6010197D7
:1009A000F1F7F301E40DF51D8081882301F15C98D6
:1009B0008081B501681B71098AE00E94A1038091C2
:1009C00050010E94250480E00E94250480E00E94DE
:1009D0002504809151010E9425045C9AC40101976D
:1009E000F1F76FEF70E08AE00E94A10303C0C60137
:1009F0000197F1F7FFEF4F1A5F0A88E0481651049C
:100A000009F06ECFEA81FB813196FB83EA83F8E03F
:100A10006F0E711C085F1F4F88E0E80EF11CEA8121
:100A2000FB81389709F053CF0F900F900F90DF9113
:100A3000CF911F910F91FF90EF90DF90CF90BF90DB
:100A4000AF909F908F907F906F905F904F903F906E
:100A50002F9008952F923F924F925F926F927F92C4
:100A60008F929F92AF92BF92CF92DF92EF92FF92BE
:100A70000F931F93CF93DF9300D01F92CDB7DEB7B4
:100A80008BE6682E81E0782E0FEE15E09FEAE92EC6
:100A900095E0F92E1B821A8222E7C22ED12CAA24BD
:100AA000AA94B12C4AEE842E912C80912F068111AC
:100AB000B2C081E00A8001C0880F0A94EAF78983F6
:100AC000412C512C99819093510181E0042C01C05B
:100AD000880F0A94EAF78093500180912F068823AB
:100AE00091F0EA81FB813196FB83EA83F8E06F0E97
:100AF000711C085F1F4F88E0E80EF11CEA81FB8142
:100B0000389799F688C01701240C351CF1018081B3
:100B1000882309F15C9880E00E94250480E00E940F
:100B20002504809150010E942504F1018081B501C6
:100B3000681B71098AE00E94A103809151010E9403
:100B400025045C9AC4010197F1F76FEF70E08AE029
:100B50000E94A10303C0C6010197F1F71801240CFC
:100B6000351CF1018081882309F15C9880E00E94A6
:100B70002504809150010E942504F1018081B50176
:100B8000681B71098AE00E94A10380E00E9425048D
:100B9000809151010E9425045C9AC4010197F1F7EC
:100BA0006FEF70E08AE00E94A10303C0C6010197C5
:100BB000F1F7F301E40DF51D8081882301F15C98C4
:100BC0008081B501681B71098AE00E94A1038091B0
:100BD00050010E94250480E00E94250480E00E94CC
:100BE0002504809151010E9425045C9AC40101975B
:100BF000F1F76FEF70E08AE00E94A10303C0C60125
:100C00000197F1F7FFEF4F1A5F0A88E04816510489
:100C100009F058CF66CF0F900F900F90DF91CF91D2
:100C20001F910F91FF90EF90DF90CF90BF90AF900A
:100C30009F908F907F906F905F904F903F902F90FC
:100C4000089540E050E020E030E0C901840F951F96
:100C5000FC01E155FA4F1082FC01E151FA4F10827C
:100C6000FC01E559FE4F10822F5F3F4F28303105C0
:100C700061F7485F5F4F4034510529F70C942A050E
:100C8000CF93DF93009779F0FC0101900020E9F702
:100C90003197AF01481B590BBC0181EC96E00E94D3
:100CA000CD02EC0102C0C0E0D0E00E940D028C0F2A
:100CB0009D1FDF91CF910895CF93DF93EC01888141
:100CC0009981009711F00E94DD0C198218821D8213
:100CD0001C821B821A82DF91CF9108950F931F937C
:100CE000CF93DF93EC0188819981009729F02A81C5
:100CF0003B812617370788F48B016F5F7F4F0E9477
:100D0000750D009761F0998388831B830A832C817A
:100D10003D81232B11F4FC01108281E001C080E0B1
:100D2000DF91CF911F910F910895EF92FF920F9352
:100D30001F93CF93DF93EC01FB0184819581E080C9
:100D4000F1800C811D81E114F104B1F00097B9F03C
:100D5000080F191FB801CE010E946E06882361F0AA
:100D6000288139818C819D81B701820F931F0E9458
:100D7000480E1D830C8303C0CE010E945C06CE0189
:100D8000DF91CF911F910F91FF90EF900895EF9217
:100D9000FF920F931F93CF93DF9300D0CDB7DEB7B1
:100DA0008C018CE289831A82F801E480F580FFEFE0
:100DB000EF1AFF0AB701C8010E946E06882381F06E
:100DC000F8012081318184819581BE016F5F7F4F61
:100DD000820F931F0E94480EF801F582E48203C03F
:100DE000C8010E945C06C8010F900F90DF91CF915F
:100DF0001F910F91FF90EF900895EF92FF920F9344
:100E00001F93CF93DF93EC017B018A01BA010E940B
:100E10006E06811104C0CE010E945C0607C01D83CE
:100E20000C83B701888199810E94480ECE01DF9121
:100E3000CF911F910F91FF90EF900895EF92FF9245
:100E40000F931F93CF93DF93CDB7DEB762970FB6A3
:100E5000F894DEBF0FBECDBF8C01CB01F80111822B
:100E600010821382128215821482168250E09E0133
:100E70002F5F3F4F7901B9010E94080CF7010190E3
:100E80000020E9F73197AF014E195F09B701C8019A
:100E90000E94FD0662960FB6F894DEBF0FBECDBF6E
:100EA000DF91CF911F910F91FF90EF9008951F92C6
:100EB0000F920FB60F9211242F933F938F939F930E
:100EC000EF93FF932091790630917A0680917B060B
:100ED00090917C062817390731F48091C1008F7DED
:100EE0008093C10014C0E0917B06F0917C06E75C22
:100EF000F94F208180917B0690917C0601968F733B
:100F0000992790937C0680937B062093C600FF91DF
:100F1000EF919F918F913F912F910F900FBE0F9066
:100F20001F9018951F920F920FB60F9211242F93B6
:100F30004F935F938F939F93EF93FF938091C000A4
:100F400082FD1CC02091C6008091BD069091BE0616
:100F500001968F7399274091BF065091C006841760
:100F6000950771F0E091BD06F091BE06E358F94F88
:100F700020839093BE068093BD0602C08091C60078
:100F8000FF91EF919F918F915F914F912F910F90D2
:100F90000FBE0F901F9018951F920F920FB60F92D1
:100FA00011242F933F934F935F936F937F938F936E
:100FB0009F93AF93BF93EF93FF9380915D019091C7
:100FC0005E01892B29F0E0915D01F0915E010995A8
:100FD000FF91EF91BF91AF919F918F917F916F9111
:100FE0005F914F913F912F910F900FBE0F901F90E7
:100FF00018951F920F920FB60F9211242F933F93C3
:101000004F935F936F937F938F939F93AF93BF9310
:10101000EF93FF9380915B0190915C01892B29F004
:10102000E0915B01F0915C010995FF91EF91BF9117
:10103000AF919F918F917F916F915F914F913F9170
:101040002F910F900FBE0F901F9018951F920F9227
:101050000FB60F9211242F933F938F939F93AF93CB
:10106000BF938091530190915401A0915501B0918B
:1010700056013091520123E0230F2D3720F40196C1
:10108000A11DB11D05C026E8230F0296A11DB11DAB
:10109000209352018093530190935401A0935501E2
:1010A000B09356018091570190915801A091590138
:1010B000B0915A010196A11DB11D809357019093E3
:1010C0005801A0935901B0935A01BF91AF919F91DC
:1010D0008F913F912F910F900FBE0F901F901895F9
:1010E000E1ECF6E01382128288EE93E0A0E0B0E03B
:1010F00084839583A683B78383E191E09183808382
:101100008DE796E09587848789E396E097878687C1
:1011100085EC90E0918B808B84EC90E0938B828BBC
:1011200080EC90E0958B848B81EC90E0978B868BA4
:1011300082EC90E0918F808F86EC90E0938F828F8D
:1011400084E0848F83E0858F87E0868F85E0878FBA
:1011500081E080A3E3EEF6E0118210821382128216
:101160001582148216824AE150E06FE171E0CF01EE
:101170000C94FD06CF93DF93CDB7DEB7AD970FB6D6
:10118000F894DEBF0FBECDBF789484B5826084BD75
:1011900084B5816084BD85B5826085BD85B581607B
:1011A00085BD80916E00816080936E0010928100F9
:1011B00080918100826080938100809181008160B4
:1011C0008093810080918000816080938000809175
:1011D000B10084608093B1008091B0008160809301
:1011E000B00080917A00846080937A0080917A00C8
:1011F000826080937A0080917A00816080937A0087
:1012000080917A00806880937A001092C10061E03A
:1012100084E00E94650361E083E00E94650361E071
:1012200085E00E94650360E082E10E94650360E062
:1012300083E10E94650362E082E00E94650388EC1E
:1012400092E090935C0180935B01809169008C7FB8
:1012500080936900E89AE091D506F091D60681E086
:1012600090E09C010090E10602C0220F331F0A9417
:10127000E2F72083E091D106F091D2061082E0914E
:10128000D306F091D40620E120831092E206E0918B
:10129000D706F091D80640819C010090DD0602C07F
:1012A000220F331F0A94E2F7242B2083E091D70604
:1012B000F091D80640819C010090DE0602C0220F0A
:1012C000331F0A94E2F7242B2083E091D706F09194
:1012D000D80640819C010090DF0602C0220F331F18
:1012E0000A94E2F7242B2083E091D706F091D806E8
:1012F00020810090E00602C0880F991F0A94E2F74F
:101300008095822380838AE391E00E944006809149
:101310008100887F8160809381000E9421068091F6
:1013200030068111BBC02091E3063091E40639A755
:1013300028A79091690180916A01709060014090A6
:10134000040150900501A0906101B0906201C0902D
:101350006301D0906401E0906501F0906601009116
:101360006701109168014091E7065091E8065BA77C
:101370004AA7812C912C4AA55BA58416950609F4F1
:1013800072C088A599A5892B29F410925F01EFE519
:10139000F1E004C0E8A5F9A5E80DF91D8081082E4B
:1013A000000C990B80971C01220C331CDC0183E09C
:1013B000AA0FBB1F8A95E1F7BDA7ACA73101A0E03A
:1013C000B0E0A830B10561F1ECA5FDA5EA0FFB1F67
:1013D000E458FF4F65917591859194919B01AC0103
:1013E000550F220B322FA9012CA33DA34EA35FA3BF
:1013F0009B01AC016CA1762F862F962F621473048B
:1014000021F400E20E94860E02C00E94BD0E590126
:101410006A017B018C013FEF631A730A1496D1CFE6
:10142000F20138967A2CCF0185559E4FDC01AC92A3
:1014300031972A2D3B2DA601B701C80108E00E9473
:10144000A10E59016A017B018C01A0E00E94C60E29
:1014500049F7BFEF8B1A9B0A2F0127E0420E511C60
:10146000922D832D88CF5092050140920401A092C5
:101470006101B0926201C0926301D0926401E09276
:101480006501F09266010093670110936801709204
:1014900060019093690180936A010BC080E880939A
:1014A000F6058093FE058093B7058093BF050E94E3
:1014B0003C0420EB222E23E0322E3CE9632E33E065
:1014C000732E48E8842E43E0942E5E015DE1A50E64
:1014D000B11CCC24C394D12C0E9400040091350689
:1014E000109136062091370630913806DC01CB0189
:1014F000801B910BA20BB30BCC97A105B10508F48F
:1015000066C182E10E94F5027C0190930301809301
:10151000020183E10E94F5022C0190930101809366
:101520000001F1018491F3011491F401049100236D
:10153000A1F081110E940C03E02FF0E0EE0FFF1FDD
:10154000E458FC4FA591B4918C91182391E080E070
:1015500009F490E0092F182F02C000E010E000937A
:1015600008010E940004609335067093360680934C
:10157000370690933806F9E0EF16F2E0FF0634F0F4
:101580002CE6E21622E0F20644F410C088E092E075
:101590008E199F09843691054CF038E0E31A32E049
:1015A000F30AF0923206E092310604C0109232063D
:1015B000109231064FE0441642E0540634F052E7F0
:1015C000451652E0550644F410C08EE092E08419AE
:1015D0009509843691054CF08EE0481A82E0580A4D
:1015E000509234064092330604C010923406109292
:1015F0003306B80191E06927617077274AE0CE0190
:1016000046960E941E0760913306709134064AE0A8
:10161000CE010F960E941E0760913106709132062E
:101620004AE0CE0101960E941E07198618861B8685
:101630001A861D861C861E8669817A816115710550
:1016400031F04D815E81CE0108960E94FD06CE01EB
:1016500008960E94C706BE01615F7F4F0E949506F3
:101660000E94C706BE016A5E7F4F0E9495061E8ECD
:101670001D8E18A21F8E1AA219A21BA28A159B05E5
:1016800071F0DC016D917C9111976115710539F054
:1016900014964D915C911597C5010E94FD068885B1
:1016A00099850E94DD0C89819A810E94DD0C8F85CD
:1016B00098890E94DD0C8E899F890E94DD0C00E0D4
:1016C00010E089A19AA108171907C0F4E091C1069A
:1016D000F091C2060190F081E02D2D8D3E8D2115F7
:1016E000310529F0D901A00FB11F6C9101C060E054
:1016F00081EC96E009950F5F1F4FE3CF0E940D022A
:1017000080913006811104C080912F06811162C042
:1017100080913006811155C00E942106D0920701A8
:10172000C0920601D092AE05C092AD05D092AC0534
:10173000C092AB058BEAE82E81E0F82E20910401DF
:1017400030910501C7018B5A914082179307DCF550
:1017500000E010E0F701E00FF11F608170E080E031
:1017600090E040E050E09B01042E02C035952795A3
:101770000A94E2F72170A22FA295AA0FAA0FA07CCB
:101780009C01200F311FF901E155FA4FA0AFF9017B
:10179000E151FA4FA0AFF901E559FE4FA0AF4F5FFD
:1017A0005F4F0897883CBFEF9B07E9F60E942A0528
:1017B0000F5F1F4F0830110569F6EFEFEE1AFE0AB2
:1017C000BDCF0E943C048D8D9E8D0E94DD0C0E9439
:1017D000C40282CE81E08093300681E491E00E94D1
:1017E00040060E94210680E8809327068093280601
:1017F0008093B7058093BF0510922F0689CF809103
:10180000E3069091E4060C94DD0CF8940C94D80E49
:101810004532510520F4423010F00C94130CFB01BA
:101820001082CB010895BB274A3031F4992322F46A
:10183000BDE2909581959F4F0C941F0CBB27FB0137
:101840005527AA27880F991FAA1FA41710F0A41BB9
:1018500083955051B9F7A05DAA3308F0A95DA19313
:10186000009779F7B111B1931192CB010C94380C18
:10187000DC01FC01672F71917723E1F7329704C0F7
:101880007C916D9370836291AE17BF07C8F3089582
:10189000CF93DF938230910510F482E090E0E091E5
:1018A000EC06F091ED0620E030E0C0E0D0E03097AB
:1018B00011F14081518148175907C0F04817590765
:1018C00061F482819381209719F09B838A832BC0D6
:1018D0009093ED068093EC0626C02115310519F092
:1018E0004217530718F49A01BE01DF01EF0102808D
:1018F000F381E02DDCCF2115310509F1281B390BCF
:101900002430310590F412968D919C9113976115B6
:10191000710521F0FB019383828304C09093ED064F
:101920008093EC06FD01329644C0FD01E20FF31FE7
:1019300081939193225031092D933C933AC0209189
:10194000EA063091EB06232B41F420910B013091F4
:101950000C013093EB062093EA06209109013091A7
:101960000A012115310541F42DB73EB740910D0113
:1019700050910E01241B350BE091EA06F091EB0625
:10198000E217F307A0F42E1B3F0B2817390778F056
:10199000AC014E5F5F4F2417350748F04E0F5F1FB5
:1019A0005093EB064093EA068193919302C0E0E0E6
:1019B000F0E0CF01DF91CF9108950F931F93CF9364
:1019C000DF93009709F48CC0FC01329713821282D6
:1019D0000091EC061091ED060115110581F42081AE
:1019E0003181820F931F2091EA063091EB06281770
:1019F000390779F5F093EB06E093EA0671C0D80158
:101A000040E050E0AE17BF0750F412962D913C9184
:101A10001397AD012115310509F1D901F3CF9D01CE
:101A2000DA013383228360817181860F971F8217C9
:101A3000930769F4EC0128813981260F371F2E5F47
:101A40003F4F318320838A819B8193838283452BFF
:101A500029F4F093ED06E093EC0642C01396FC9354
:101A6000EE931297ED01499159919E01240F351F74
:101A7000E217F30771F480819181840F951F02961C
:101A800011969C938E938281938113969C938E934F
:101A90001297E0E0F0E0D80112968D919C91139797
:101AA000009719F0F8018C01F6CF8D919C91980167
:101AB0002E5F3F4F820F931F2091EA063091EB0675
:101AC0002817390769F4309729F41092ED0610921F
:101AD000EC0602C0138212821093EB060093EA0612
:101AE000DF91CF911F910F910895A0E0B0E0EBE757
:101AF000FDE00C94530EEC01009721F4CB010E9401
:101B0000480CB8C0FC01E60FF71F9C0122503109B8
:101B1000E217F30708F4ACC0D9010D911C9111979D
:101B200006171707B0F00530110508F49FC0C8016B
:101B300004978617970708F499C002501109061BED
:101B4000170B019311936D937C93CF010E94DD0CD1
:101B50008DC05B01A01AB10A4C01800E911EA091AC
:101B6000EC06B091ED0640E050E0E12CF12C10972E
:101B700009F44AC0A815B905D1F56D907C9011976C
:101B8000630182E0C80ED11CCA14DB0480F1A301FA
:101B90004A195B096A0182E0C80ED11C1296BC90FA
:101BA00012971396AC91B5E0CB16D10440F0B282F7
:101BB000A38351834083D9016D937C930AC00E5F48
:101BC0001F4FC301800F911FF90191838083EB2D7B
:101BD000FA2FE114F10431F0D7011396FC93EE9340
:101BE000129744C0F093ED06E093EC063FC08D9150
:101BF0009C9111974817590708F4AC017D01129682
:101C00000D90BC91A02DB3CF8091EA069091EB0688
:101C100088159905E1F446175707C8F48091090122
:101C200090910A01009741F48DB79EB740910D0144
:101C300050910E01841B950BE817F907C8F4F09337
:101C4000EB06E093EA06F901718360830FC0CB01D4
:101C50000E94480C7C01009759F0A801BE010E9427
:101C60003F0ECE010E94DD0CC70104C0CE0102C0B0
:101C700080E090E0CDB7DEB7EEE00C946F0EFB0194
:101C8000DC0102C001900D9241505040D8F70895F8
:101C9000FB01DC0101900D920020E1F708952F92E5
:101CA0003F924F925F926F927F928F929F92AF92EC
:101CB000BF92CF92DF92EF92FF920F931F93CF9339
:101CC000DF93CDB7DEB7CA1BDB0B0FB6F894DEBFD0
:101CD0000FBECDBF09942A88398848885F846E84F6
:101CE0007D848C849B84AA84B984C884DF80EE8040
:101CF000FD800C811B81AA81B981CE0FD11D0FB649
:101D0000F894DEBF0FBECDBFED0108950F930830EC
:101D100090F0982F872F762F652F542F432F322F37
:101D200022270850F4CF220F331F441F551F661F70
:101D3000771F881F991F0A95B2F70F91089597FB97
:101D400010F8169400080F93083098F00850232FCD
:101D5000342F452F562F672F782F892F902DF4CFB2
:101D600005949795879577956795579547953795F6
:101D700027950A95AAF70F9108952A0D3B1D4C1D32
:101D80005D1D6E1D7F1D801F911F08950024A7FDFE
:101D900000942A1730054005500560057005800540
:101DA00090050895EE0FFF1F0590F491E02D099422
:101DB00011E0C2EED1E004C0FE010E94D20E2196D5
:0A1DC000C33ED107C9F7F894FFCF26
:101DCA000E02080207000800010000EE06200000CB
:101DDA000000002B02CD02B402780298026D026163
:101DEA0062636465666768696A6B6C6D6E6F707151
:101DFA0072737475767778797A0073657420757062
:101E0A0000737461727420746F20706C61790000C1
:00000001FF
