:100000000C94E3010C94C9070C949C070C940B020C
:100010000C940B020C940B020C940B020C940B022C
:100020000C940B020C940B020C940B020C940B021C
:100030000C940B020C940B020C940B020C940B020C
:100040000C94F6070C940B020C9462070C9427078F
:100050000C940B020C940B020C940B020C940B02EC
:100060000C940B020C940B02000000000000000036
:10007000000000000000002F00030000000000034B
:10008000143E14000000143E2A24000000122A7FAF
:100090000A15050210282A14291600002810112913
:1000A0000000000000000003120C0000000000210E
:1000B0002100000000000C120E15000000150E1F9C
:1000C000080800000008083E400000000000002072
:1000D00008080000000008080000000000000020E0
:1000E000081020000001020421120C00000C122153
:1000F000220000000000203F293122000022252993
:100100002921120000122529121418000000103FA6
:10011000252517000019252525251E000018252551
:10012000091121000001030525251A00001A2525C3
:1001300029290600001E29290000000000000024D3
:1001400040000000000000241408080000222214CF
:1001500014141400001414141422220000080814AB
:100160002901020000000609BA4224180000BEAAB4
:100170000B0C300000300C0B25253F0000001A2529
:100180002121120C0000122121213F0000001E211C
:1001900025253F000000212505053F000000010541
:1001A0002921120C00001A2904043F00003F040416
:1001B000212100000021213F2120100000001F21EB
:1001C0000C083F000000211220203F0000202020CA
:1001D00004023F003F02040804023F00003F1008F1
:1001E000211E0000001E212105053F000000020520
:1001F000211E0000005E21210D053F000000221598
:100200002512000000122929010101000101013F0E
:1002100020201F00001F20202018060101061820A2
:1002200008103F003F1008040C1221000021120C9E
:100230000402010001020438293121000021232594
:10024000213F0000000000210402010000201008EE
:1002500001020000000000022020200000202020D9
:1002600001000000000000022A2A1000003C1A2AA7
:1002700024143F0000182424241800000000242423
:1002800024241800003F14242A2A1C00000C2A2AC7
:100290003E0800000000000AA4A4180000007C88AA
:1002A000043F000000003804000000000000003D92
:1002B000848080000000007D103F000000002428A2
:1002C0003F0000000000002008043C00003C04083F
:1002D000083C0000003C04042424180000182424D6
:1002E0002428FC00001824242424180000FC2824BE
:1002F0002A2400000000122A083C00000008040420
:100300003E04000000000424201C0000003C1020DB
:1003100020100C00000C10201020300C0C3020108D
:10032000102824000024281050888400000C10207D
:10033000342400000000242C3F0C00000000212188
:10034000000000000000007F2121000000000C3FA1
:1003500008081000000810103F3F3F00003F3F3FDB
:100360000000000000000000000000002400270042
:100370002A0000000000250028002B0000000000DB
:1003800023002600290004040404040404040202D7
:100390000202020203030303030301020408102004
:1003A000408001020408102001020408102000000F
:1003B0000007000201000003040600000000000026
:1003C00000004008550C11241FBECFEFD8E0DEBF5F
:1003D000CDBF11E0A0E0B1E0E0E4FEE102C0059095
:1003E0000D92AA35B107D9F727E0AAE5B1E001C01F
:1003F0001D92A330B207E1F711E0C2EED1E004C0D4
:100400002197FE010E940D0FC13ED107C9F70E943E
:1004100086080C945D0C0C9400000F931F93CF93EF
:10042000DF93CFECD6E0E881F9810190F081E02DF7
:100430006DE0CE0109958C01E881F9810190F08190
:10044000E02D6AE0CE010995800F911FDF91CF91D9
:100450001F910F9108952FB7F894809143069091C2
:100460004406A0914506B09146062FBF8093D7065B
:100470009093D806A093D906B093DA06E091CF0600
:10048000F091D0060680F781E02D8FEC96E009957B
:1004900097FF26C02FB7F8948091430690914406A9
:1004A000A0914506B09146062FBF4091D7065091C6
:1004B000D8066091D9067091DA06841B950BA60BBD
:1004C000B70B4091D3065091D4066091D506709138
:1004D000D60684179507A607B70780F28FEF9FEF20
:1004E00008950F931F93CF93DF93FC01A685B785E3
:1004F0008D01005C1F4FE8018881998101968F73FF
:100500009927AD014E5B5F4FEA012881398182173F
:100510009307D1F3E80128813981A20FB31F6C93AF
:10052000A685B785A05CBF4F11969C938E93A68934
:10053000B7892C9181E090E0078C02C0880F991F49
:100540000A94E2F7822B8C9381E081A30488F589D9
:10055000E02D80818064808381E090E0DF91CF9105
:100560001F910F910895FC0181A1882329F0A4898E
:10057000B5898C9186FFFBCF11A20895FC01A4855B
:10058000B585FD01E05CFF4F20813181329680818D
:1005900091812817390779F080819181A80FB91FBF
:1005A0008C91208131812F5F3F4F2F73332731830F
:1005B000208390E008958FEF9FEF0895DC011C9653
:1005C000ED91FC911D97DF01A05CBF4F2D913C91F7
:1005D000119712968D919C9111972817390739F030
:1005E0008D919C91E80FF91F808190E008958FEF25
:1005F0009FEF0895FC0124853585F901E05CFF4FEC
:1006000080819181329620813181821B930B8F737F
:10061000992708958FEC96E00C94FA0281E080937C
:100620003D0608950895CF92DF92EF92FF920F93C7
:100630001F93CF93DF936C01EB017B01E40EF51E5A
:1006400000E010E0CE15DF0561F06991D601ED9173
:10065000FC910190F081E02DC6010995080F191F4A
:10066000F1CFC801DF91CF911F910F91FF90EF90D3
:10067000DF90CF900895FC012481358162177307C4
:1006800048F480819181009729F0FC01E60FF71F63
:100690008081089580E008958E3008F08E50877034
:1006A000806480937C0080917A00806480937A00DB
:1006B00080917A0086FDFCCF8091780020917900AE
:1006C00090E0922B0895833081F028F4813099F0E6
:1006D0008230A1F008958630A9F08730B9F08430D7
:1006E000D1F4809180008F7D03C0809180008F774E
:1006F00080938000089584B58F7702C084B58F7D84
:1007000084BD08958091B0008F7703C08091B000C0
:100710008F7D8093B00008951F93CF93DF93282F90
:1007200030E0F901E255FC4F8491F901E656FC4FA7
:10073000D491F901EA57FC4FC491CC23C9F0162F8C
:1007400081110E946303EC2FF0E0EE0FFF1FEE58C3
:10075000FC4FA591B4918FB7F894111105C09C91ED
:10076000ED2FE095E92302C0EC91ED2BEC938FBFC8
:10077000DF91CF911F910895CF93DF9390E0FC011B
:10078000E656FC4F2491FC01EA57FC4F84918823E4
:1007900061F190E0880F991FFC01E859FC4FC59169
:1007A000D491FC01EE58FC4FA591B491611109C0A0
:1007B0009FB7F8948881209582238883EC912E231B
:1007C0000BC0623061F49FB7F8943881822F809516
:1007D00083238883EC912E2B2C939FBF06C08FB769
:1007E000F894E8812E2B28838FBFDF91CF91089555
:1007F0001F93CF93DF93182FEB0161E00E94BC039E
:10080000209711F460E004C0CF3FD10539F461E0D6
:10081000812FDF91CF911F910C948C03E12FF0E099
:10082000E255FC4FE491E330F9F048F4E130B9F0DF
:10083000E230A1F584B5806284BDC8BD34C0E63025
:10084000E9F0E73019F1E43049F5809180008062E9
:1008500080938000D0938B00C0938A0024C084B51D
:10086000806884BDC7BD1FC0809180008068809370
:100870008000D0938900C093880015C08091B0009B
:1008800080688093B000C093B3000DC08091B00029
:1008900080628093B000C093B40005C0C038D10519
:1008A0000CF0B5CFAFCFDF91CF911F9108953FB737
:1008B000F8948091690190916A01A0916B01B091C7
:1008C0006C0126B5A89B05C02F3F19F00196A11D0C
:1008D000B11D3FBFBA2FA92F982F8827820F911DD6
:1008E000A11DB11DBC01CD0142E0660F771F881F1D
:1008F000991F4A95D1F708952F923F924F925F9298
:100900006F927F928F929F92AF92BF92CF92DF921F
:10091000EF92FF920F931F93CF93DF93CDB7DEB784
:100920002A970FB6F894DEBF0FBECDBF2091F80610
:100930003091F9063C832B83909166018091670189
:1009400090905D01A0910501B0910601BA83A98341
:10095000A0905E01B0905F01C0906001D0906101F5
:10096000E0906201F09063010091640110916501D3
:10097000E091FC06F091FD06FE83ED831A86198650
:10098000E985FA852D813E81E217F30709F475C0E8
:100990002B813C81232B29F410925C01ECE5F1E0E2
:1009A00006C0EB81FC8149855A85E40FF51F8081E3
:1009B000082E000C990B80971C01220C331CDC01C3
:1009C00043E0AA0FBB1F4A95E1F7B887AF83410107
:1009D000A0E0B0E0A830B10549F18F8198858A0F79
:1009E0009B1FFC01E859FF4F65917591859194918A
:1009F0002B013C01770C4408542C32019B01AC01C3
:100A0000642D742D842D942D8214930421F400E21E
:100A10000E94C10E02C00E94F80E59016A017B01BA
:100A20008C01EFEF8E1A9E0A1496D4CFE981FA81D9
:100A300038969A2CCF01875C9D4FDC01AC923197A0
:100A40002A2D3B2DA601B701C80108E00E94DC0E4B
:100A500059016A017B018C01A0E00E94010F49F756
:100A600029853A852F5F3F4F3A872987DF011796FF
:100A7000BA83A983922D832D83CFA0925E01B09279
:100A80005F01C0926001D0926101E0926201F09238
:100A90006301009364011093650190925D01A98147
:100AA000BA81B0930601A0930501909366018093EB
:100AB00067012A960FB6F894DEBF0FBECDBFDF9157
:100AC000CF911F910F91FF90EF90DF90CF90BF904B
:100AD000AF909F908F907F906F905F904F903F90DE
:100AE0002F90089520E030E090E0AC01022E02C08B
:100AF000559547950A94E2F740FF02C05B9A01C002
:100B00005B985D9A5D982F5F3F4F2830310569F7FC
:100B100008952F923F924F925F926F927F928F92A1
:100B20009F92AF92BF92CF92DF92EF92FF920F937C
:100B30001F93CF93DF9300D01F92CDB7DEB789E725
:100B4000682E81E0782E09EB11E099EFE92E91E013
:100B5000F92E1B821A822AEEC22ED12CAA24AA9424
:100B6000B12C4AED842E9924939480913D068111F5
:100B7000B2C081E00A8001C0880F0A94EAF7898335
:100B8000412C512C998190935B0181E0042C01C090
:100B9000880F0A94EAF780935A0180913D068823D2
:100BA00091F0EA81FB813196FB83EA83F8E06F0ED6
:100BB000711C085F1F4F88E0E80EF11CEA81FB8181
:100BC000389799F688C01701240C351CF1018081F3
:100BD000882309F15C9880E00E94720580E00E9401
:100BE000720580915A010E947205F1018081B50160
:100BF000681B71098AE00E94F80380915B010E94E2
:100C000072055C9AC4010197F1F76FEF70E08AE01A
:100C10000E94F80303C0C6010197F1F71801240CE4
:100C2000351CF1018081882309F15C9880E00E94E5
:100C3000720580915A010E947205F1018081B5010F
:100C4000681B71098AE00E94F80380E00E94720527
:100C500080915B010E9472055C9AC4010197F1F7D3
:100C60006FEF70E08AE00E94F80303C0C6010197AD
:100C7000F1F7F301E40DF51D8081882301F15C9803
:100C80008081B501681B71098AE00E94F803809198
:100C90005A010E94720580E00E94720580E00E9465
:100CA000720580915B010E9472055C9AC4010197F4
:100CB000F1F76FEF70E08AE00E94F80303C0C6010D
:100CC0000197F1F7FFEF4F1A5F0A88E048165104C9
:100CD00009F058CF66CF0F900F900F90DF91CF9112
:100CE0001F910F91FF90EF90DF90CF90BF90AF904A
:100CF0009F908F907F906F905F904F903F902F903C
:100D0000089540E050E020E030E0C901840F951FD5
:100D1000FC01E750FE4F1082FC01E754FE4F1082A9
:100D2000FC01E758FE4F10822F5F3F4F28303105FE
:100D300061F7485F5F4F4034510529F70C948905EE
:100D4000FC01808191810C94F50CCF93DF93FC0121
:100D500024813581232B71F0FB01DC01CD91DC91E5
:100D600060817181CE010E94700E009719F08C1B7A
:100D70009D0B02C08FEF9FEFDF91CF9108950F93EE
:100D80001F93CF93DF93EC0188819981009729F01D
:100D90002A813B812617370788F48B016F5F7F4FCD
:100DA0000E948D0D009761F0998388831B830A83CD
:100DB0002C813D81232B11F4FC01108281E001C0C4
:100DC00080E0DF91CF911F910F910895EF92FF92F4
:100DD0000F931F93CF93DF93EC017B018A01BA013C
:100DE0000E94BF062881398181110DC0211531056E
:100DF00019F0C9010E94F50C198218821D821C820B
:100E00001B821A8206C01D830C83B701C9010E9490
:100E1000690ECE01DF91CF911F910F91FF90EF905E
:100E20000895FC01118210821382128215821482AD
:100E300016826115710551F0FB0101900020E9F760
:100E40003197AF01461B570B0C94E60608951F928D
:100E50000F920FB60F9211242F933F938F939F936E
:100E6000EF93FF9320918706309188068091890641
:100E700090918A062817390731F48091C1008F7D3F
:100E80008093C10014C0E0918906F0918A06E95B65
:100E9000F94F20818091890690918A0601968F737F
:100EA000992790938A06809389062093C600FF9124
:100EB000EF919F918F913F912F910F900FBE0F90C7
:100EC0001F9018951F920F920FB60F9211242F9317
:100ED0004F935F938F939F93EF93FF938091C00005
:100EE00082FD1CC02091C6008091CB069091CC065B
:100EF00001968F7399274091CD065091CE068417A5
:100F0000950771F0E091CB06F091CC06E557F94FCB
:100F100020839093CC068093CB0602C08091C600BC
:100F2000FF91EF919F918F915F914F912F910F9032
:100F30000FBE0F901F9018951F920F920FB60F9231
:100F400011242F933F934F935F936F937F938F93CE
:100F50009F93AF93BF93EF93FF9380916F01909115
:100F60007001892B29F0E0916F01F09170010995D2
:100F7000FF91EF91BF91AF919F918F917F916F9171
:100F80005F914F913F912F910F900FBE0F901F9047
:100F900018951F920F920FB60F9211242F933F9323
:100FA0004F935F936F937F938F939F93AF93BF9371
:100FB000EF93FF9380916D0190916E01892B29F041
:100FC000E0916D01F0916E010995FF91EF91BF9154
:100FD000AF919F918F917F916F915F914F913F91D1
:100FE0002F910F900FBE0F901F9018951F920F9288
:100FF0000FB60F9211242F933F938F939F93AF932C
:10100000BF938091430690914406A0914506B0910C
:1010100046063091680123E0230F2D3720F4019616
:10102000A11DB11D05C026E8230F0296A11DB11D0B
:10103000209368018093430690934406A09345064D
:10104000B09346068091690190916A01A0916B016D
:10105000B0916C010196A11DB11D8093690190931F
:101060006A01A0936B01B0936C01BF91AF919F9106
:101070008F913F912F910F900FBE0F901F90189559
:10108000EFECF6E01382128288EE93E0A0E0B0E08D
:1010900084839583A683B78383E191E091838083E2
:1010A0008BE896E09587848787E496E09787868724
:1010B00085EC90E0918B808B84EC90E0938B828B1D
:1010C00080EC90E0958B848B81EC90E0978B868B05
:1010D00082EC90E0918F808F86EC90E0938F828FEE
:1010E00084E0848F83E0858F87E0868F85E0878F1B
:1010F00081E080A36FE171E088EF96E00E94110724
:1011000065E271E081EF96E00C941107CF93DF93D5
:10111000CDB7DEB76D970FB6F894DEBF0FBECDBF6B
:10112000789484B5826084BD84B5816084BD85B5C2
:10113000826085BD85B5816085BD80916E008160CE
:1011400080936E0010928100809181008260809374
:101150008100809181008160809381008091800076
:101160008160809380008091B10084608093B100A1
:101170008091B00081608093B00080917A0084609B
:1011800080937A0080917A00826080937A008091C7
:101190007A00816080937A0080917A0080688093E1
:1011A0007A001092C10061E084E00E94BC0361E01B
:1011B00083E00E94BC0361E085E00E94BC0360E024
:1011C00082E10E94BC0360E083E10E94BC0362E014
:1011D00082E00E94BC038EE093E090936E018093C6
:1011E0006D01809169008C7F80936900E89AE0919D
:1011F000E306F091E40681E090E09C010090EF06A8
:1012000002C0220F331F0A94E2F72083E091DF0629
:10121000F091E0061082E091E106F091E20620E113
:1012200020831092F006E091E506F091E6064081F9
:101230009C010090EB0602C0220F331F0A94E2F7D4
:10124000242B2083E091E506F091E60640819C0185
:101250000090EC0602C0220F331F0A94E2F7242B01
:101260002083E091E506F091E60640819C01009024
:10127000ED0602C0220F331F0A94E2F7242B2083CD
:10128000E091E506F091E60620810090EE0602C0AE
:10129000880F991F0A94E2F780958223808384E661
:1012A00090E0A0E0B0E08093D3069093D406A093A2
:1012B000D506B093D60680918100887F81608093A7
:1012C00081000E94810680913E06811103C00E9428
:1012D0007C0402C00E94890560EB262E63E0362E56
:1012E0007CE9672E73E0772EE8E88E2EE3E09E2EF1
:1012F000F2E0AF2EB12CA7E3CA2ED12C0E945704E6
:1013000000913F061091400620914106309142061F
:10131000DC01CB01801B910BA20BB30B883791052D
:10132000A105B10508F4ACC282E10E944C038C0116
:10133000909304018093030183E10E944C037C019C
:101340009093020180930101F1018491F301549083
:10135000F4014490442079F081110E946303E42D4C
:10136000F0E0EE0FFF1FE458FC4FA591B4918C9173
:10137000582281E009F480E0809300010E94570424
:1013800060933F0670934006809341069093420617
:101390000930F2E01F072CF00C3682E0180744F405
:1013A0000EC088E092E0801B910B843691053CF0E2
:1013B00008501240109378010093770104C01092F6
:1013C000780110927701EFE0EE16E2E0FE0634F0CD
:1013D000F2E7EF16F2E0FF0644F410C08EE092E070
:1013E0008E199F09843691054CF08EE0E81A82E050
:1013F000F80AF0927601E092750104C0109276012D
:10140000109275018091750190917601409177015C
:101410005091780122273327241B350B8417950719
:1014200034F0281739074CF466E271E014C08217D3
:10143000930734F069E271E00EC04817590734F0A1
:101440008217930734F46FE271E005C064E371E042
:1014500002C065E271E0CE0146960E9411078A8DB6
:101460009B8D892B09F1EE89FF8980818823E1F02A
:1014700000E010E08A8D9B8D0817190798F4B801D9
:10148000CE0146960E943B03E091CF06F091D00634
:101490000190F081E02D682F8FEC96E009950F5FA9
:1014A0001F4FE8CF0E940D028FEC96E00E94FA02D7
:1014B000892B09F45BC065E271E0CE0101960E94C0
:1014C00011070E942B020D811E8197FD19C088878C
:1014D00019860F5F1F4FB801CE0101960E94BF060B
:1014E000882379F329813A818D819E81BE01685FCD
:1014F0007F4F820F931F0E94690E1E830D83E1CFE1
:101500008091F1069091F2060097A1F02091F306E8
:101510003091F4062017310758F069817A810E94D2
:10152000690E8D819E819093F6068093F50618C012
:101530000E94F50C89819A819093F2068093F106BE
:101540008B819C819093F4068093F3068D819E811C
:101550009093F6068093F5061A8219821C821B82EC
:101560001E821D82CE0101960E94A0068091F50682
:101570009091F606029708F415C10E948106E0904A
:10158000F506F090F6060091F1061091F206E114CE
:10159000F10461F069E371E0C8010E94600E892BDB
:1015A00029F410923E060E947C04FCC0188A1F8613
:1015B0001A8A198A1C8A1B8A1D8A0115110531F0A5
:1015C000A701B801CE010F960E94E60663E471E020
:1015D000CE0101960E941107BE016F5F7F4FCE01C1
:1015E0000F960E94A5062C01CE0101960E94A0062E
:1015F00065E471E0CE0101960E941107BE016F5FA4
:101600007F4FCE010F960E94A5067C01CE01019668
:101610000E94A0068201EFEFEE1AFE0A4E145F044C
:1016200028F49E2D8F2D7201092F182F65E271E08D
:10163000CE0108960E9411078B899C898E159F0503
:1016400080F18017910708F48C01EF85F889E00F8D
:10165000F11F508010826F8578896E0D7F1D611596
:10166000710569F0FB0101900020E9F73197AF01A6
:10167000461B570BCE0108960E94E6060CC08885D3
:101680009985009711F00E94F50C198618861D8621
:101690001C861B861A868F859889FC01E00FF11F36
:1016A0005082EC84FD84412C512C40E84E145F04A0
:1016B00030F5B201CE0108964D8F0E943B03082FF2
:1016C000880F110BB2016E5F7F4FCE0108960E940A
:1016D0003B039601201B310B43E0220F331F4A9539
:1016E000E1F727543E4F280F311D87FD3A95F90148
:1016F000F0974D8D4083F4E04F0E511CD7CF67E437
:1017000071E0CE0101960E941107BE016F5F7F4F0D
:10171000CE010F960E94A5068C01CE0101960E9473
:10172000A00610161106A4F5EB88FC88B7016350DB
:101730007109CE010F960E943B03182FB70161502B
:101740007109CE010F960E943B03282F812F110FA4
:10175000990BAC01405351095093740140937301AC
:10176000022E000C330B2053310930937201209369
:101770007101F601E81BF90B93E0EE0FFF1F9A953C
:10178000E1F72E0F3F1FF901E750FE4F80E88083FD
:101790000E948905CE0108960E94A006CE010F96F0
:1017A0000E94A00640E050E065E271E081EF96E023
:1017B0000E94E60680913E06811104C080913D069C
:1017C000811161C080913E06811154C00E94810642
:1017D000B0920801A092070110923C0610923B06BD
:1017E00010923A061092390689E3E82E82E0F82E2C
:1017F0002091050130910601C7018953924082175B
:101800009307D4F500E010E0F701E00FF11F6081CD
:1018100070E020E030E040E050E0C901800F911F0F
:10182000DC01A750BE4FFB01042E02C0F595E795E1
:101830000A94E2F7E795EE27E795D896EC93FC013A
:10184000E754FE4F10AEFC01E758FE4F10AE4F5F5D
:101850005F4F28503109283C8FEF3807F1F60E947E
:1018600089050F5F1F4F0830110571F6EFEFEE1A73
:10187000FE0ABECF0E948905CE0146960E94A006B0
:101880000E940A033BCD81E080933E0645E050E094
:1018900064E571E08FEC96E00E9413030E940D0254
:1018A0000E94810610923D068DCF81EF96E00E9446
:1018B000A00688EF96E00C94A006F8940C94130F01
:1018C000CF93DF938230910510F482E090E0E091B5
:1018D0000107F091020720E030E0C0E0D0E030974F
:1018E00011F14081518148175907C0F04817590735
:1018F00061F482819381209719F09B838A832BC0A6
:10190000909302078093010726C02115310519F035
:101910004217530718F49A01BE01DF01EF0102805C
:10192000F381E02DDCCF2115310509F1281B390B9E
:101930002430310590F412968D919C911397611586
:10194000710521F0FB019383828304C09093020709
:1019500080930107FD01329644C0FD01E20FF31FA1
:1019600081939193225031092D933C933AC0209159
:10197000FF0630910007232B41F420910B01309199
:101980000C01309300072093FF062091090130914C
:101990000A012115310541F42DB73EB740910D01E3
:1019A00050910E01241B350BE091FF06F0910007CA
:1019B000E217F307A0F42E1B3F0B2817390778F026
:1019C000AC014E5F5F4F2417350748F04E0F5F1F85
:1019D000509300074093FF068193919302C0E0E08B
:1019E000F0E0CF01DF91CF9108950F931F93CF9334
:1019F000DF93009709F48CC0FC01329713821282A6
:101A000000910107109102070115110581F4208151
:101A10003181820F931F2091FF0630910007281714
:101A2000390779F5F0930007E093FF0671C0D801FC
:101A300040E050E0AE17BF0750F412962D913C9154
:101A40001397AD012115310509F1D901F3CF9D019E
:101A5000DA013383228360817181860F971F821799
:101A6000930769F4EC0128813981260F371F2E5F17
:101A70003F4F318320838A819B8193838283452BCF
:101A800029F4F0930207E093010742C01396FC93F8
:101A9000EE931297ED01499159919E01240F351F44
:101AA000E217F30771F480819181840F951F0296EC
:101AB00011969C938E938281938113969C938E931F
:101AC0001297E0E0F0E0D80112968D919C91139767
:101AD000009719F0F8018C01F6CF8D919C91980137
:101AE0002E5F3F4F820F931F2091FF06309100071A
:101AF0002817390769F4309729F4109202071092D9
:101B0000010702C013821282109300070093FF06A0
:101B1000DF91CF911F910F910895A0E0B0E0E3E92C
:101B2000FDE00C948E0EEC01009721F4CB010E9495
:101B3000600CB8C0FC01E60FF71F9C012250310970
:101B4000E217F30708F4ACC0D9010D911C9111976D
:101B500006171707B0F00530110508F49FC0C8013B
:101B600004978617970708F499C002501109061BBD
:101B7000170B019311936D937C93CF010E94F50C89
:101B80008DC05B01A01AB10A4C01800E911EA0917C
:101B90000107B091020740E050E0E12CF12C1097D2
:101BA00009F44AC0A815B905D1F56D907C9011973C
:101BB000630182E0C80ED11CCA14DB0480F1A301CA
:101BC0004A195B096A0182E0C80ED11C1296BC90CA
:101BD00012971396AC91B5E0CB16D10440F0B282C7
:101BE000A38351834083D9016D937C930AC00E5F18
:101BF0001F4FC301800F911FF90191838083EB2D4B
:101C0000FA2FE114F10431F0D7011396FC93EE930F
:101C1000129744C0F0930207E09301073FC08D91F3
:101C20009C9111974817590708F4AC017D01129651
:101C30000D90BC91A02DB3CF8091FF06909100072D
:101C400088159905E1F446175707C8F480910901F2
:101C500090910A01009741F48DB79EB740910D0114
:101C600050910E01841B950BE817F907C8F4F09307
:101C70000007E093FF06F901718360830FC0CB0179
:101C80000E94600C7C01009759F0A801BE010E94DF
:101C9000570ECE010E94F50CC70104C0CE0102C050
:101CA00080E090E0CDB7DEB7EEE00C94AA0EFB0129
:101CB000DC0102C001900D9241505040D8F70895C8
:101CC000FB01DC018D91019080190110D9F3990B72
:101CD0000895FB01DC0101900D920020E1F70895C9
:101CE000FB0151915523A9F0BF01DC014D9145172E
:101CF0004111E1F759F4CD010190002049F04D91D7
:101D000040154111C9F3FB014111EFCF81E090E093
:101D1000019708952F923F924F925F926F927F9218
:101D20008F929F92AF92BF92CF92DF92EF92FF92EB
:101D30000F931F93CF93DF93CDB7DEB7CA1BDB0B97
:101D40000FB6F894DEBF0FBECDBF09942A8839883C
:101D500048885F846E847D848C849B84AA84B98443
:101D6000C884DF80EE80FD800C811B81AA81B9814F
:101D7000CE0FD11D0FB6F894DEBF0FBECDBFED0163
:101D800008950F93083090F0982F872F762F652FA6
:101D9000542F432F322F22270850F4CF220F331F06
:101DA000441F551F661F771F881F991F0A95B2F79A
:101DB0000F91089597FB10F8169400080F930830C0
:101DC00098F00850232F342F452F562F672F782F48
:101DD000892F902DF4CF05949795879577956795E2
:101DE00057954795379527950A95AAF70F91089526
:101DF0002A0D3B1D4C1D5D1D6E1D7F1D801F911FFB
:101E000008950024A7FD00942A17300540055005C9
:101E100060057005800590050895EE0FFF1F059081
:101E2000F491E02D099411E0C2EED1E004C0FE016E
:101E30000E940D0F2196C33ED107C9F7F894FFCF3A
:101E4000010E02080207000800000003072000003E
:101E500000000071021303FA02BE02DE02B3025058
:101E600052455353210075700072696768740064AD
:101E70006F776E006C6566740047414D45204F5684
:101E80004552003B003A00666F6F64506F7369748F
:0A1E9000696F6E00707265737300D5
:00000001FF
